:020000040800F2
:1000000000000220218A0508E59D0008FD3D020848
:10001000D18A0508D18A0508D18A050800000000A8
:1000200000000000000000000000000019B20008FD
:100030001BB20008000000001DB200089129010851
:10004000D18A0508D18A0508D18A0508D18A050810
:10005000D18A0508D18A0508350801083908010840
:10006000D18A05083D08010841080108D9A1000806
:10007000EDA1000801A2000815A2000829A20008AD
:100080003DA2000851A20008D18A05080000000026
:10009000000000000000000000000000450801080A
:1000A00011A1000839A1000861A10008FDA0000805
:1000B00089A100089DA10008B1A10008D18A050806
:1000C000D18A0508D18A0508D18A0508D18A050890
:1000D000D18A0508299F0008359F0008000000000C
:1000E00049080108D18A05081FB200080000000075
:1000F00000000000000000000000000065A20008F1
:1001000000000000D18A0508C5A10008D18A0508B1
:1001100000000000000000000000000000000000DF
:1001200079A200088DA20008A1A20008B5A20008CB
:10013000C9A200080000000000000000000000004C
:1001400000000000000000000000000071B2000884
:10015000DDA20008F1A2000805A30008D18A050865
:10016000D18A0508D18A05080000000000000000BF
:10017000000000000000000000000000000000007F
:1001800000000000D18A0508000000000000000007
:08019000D18A0508D18A050897
:08019800B48505000100000020
:1001A00068280120020100000300140088280120B3
:1001B0000207000001001400A82801200208000026
:1001C00008001400C8280120010B0000000077007F
:1001D000E8280120010C0000000076000829012019
:1001E000011000000000760028290120010D010007
:1001F000000077004829012001120000000076006D
:10020000682901200114000000001E008829012037
:10021000011A000000000D00A829012001160000AD
:1002200000000C00C8290120011B000000000E0086
:10023000E8290120011C000000001E00082A0120FE
:100240000117000000000C00282A012001180000FE
:1002500000000E00482A01200119000000000C00D7
:10026000682A01200229050000012C00882A0120AB
:100270000231000000012200A82A01200133000001
:1002800000003C00C82A01200136000000002000C8
:10800000D0E907239A422FBFD01AC0688018C01A3F
:108010007047D0E9092300699A4238BF1218D31A71
:108020000138C01A7047D0E90902131A5842584162
:108030007047036A41690246C85CD16801338B42CC
:1080400028BF002313627047436A8269D154436A90
:1080500002690133934228BF0023426B4362D36815
:1080600043F08003D3607047436B188810F0100012
:108070001EBF1A889B8801207047436B99891A8814
:10808000890610B592B2044607D5900605D5E26A76
:1080900022B39888216B80B29047636B99891A88C4
:1080A000090692B20FD510060DD5D4E909128A42FD
:1080B00022D0A169895C998021690132B2FBF1F07B
:1080C00001FB1022A262998A1A88C90592B204D5CE
:1080D000D20744BF4FF6F7721A8010BD9B88E26941
:1080E0006169DBB28B54E369E2680133B3FBF2F1FF
:1080F00002FB1133E361D0E7DA6822F08002DA6034
:10810000E1E7036941681F2B30B54FF0200285BFBE
:10811000A3F120054C680C68AA4098BF9A402242FF
:108120001ED0826900201074D0688468206820F016
:10813000010020605468206865790A4C828934F80F
:10814000154092B21F2B22EA0402828188BF203B95
:108150004FF020028BBF9A4002FA03F3CA608B6093
:1081600030BD00BFCCF105080E4BDA68D20310D445
:10817000DA68D1060FD4DA68D2050ED4DA6812F0C4
:10818000E00F0CD1DB6813F0020F14BF08200920A8
:108190007047012070470620704702207047072073
:1081A000704700BF003C024007B509238DF8073037
:1081B000FFF7DAFF8DF807009DF80730012BF7D0A5
:1081C0009DF8070003B05DF804FB838A028B9BB225
:1081D00043EA024331EA03030CBF01200020704749
:1081E00082B0002301930093012300900193019B2F
:1081F00063B1009A21F07F4314320092009A126812
:108200001A4214BF0120002002B07047009A1832B1
:10821000F3E77047704701207047034BD3E9000331
:10822000C01AC0F30A00704748180020054AD2E976
:1082300000138B42FDD0D1180133C3F30A03087A2F
:108240005360704748180020044BD3F8080820B149
:10825000D3F80808431F5842584170474818002077
:10826000012380F849307047044BD3E90003C01A5A
:10827000C0F30A00C0F50060704700BF4818002036
:1082800010B5D0F8E83504461B699847032384F8F5
:108290001231002010BD08B590F8123180F813316A
:1082A000042380F81231D0F8E835DB6898470020C5
:1082B00008BD08B5D0F8E435DB6903B19847002064
:1082C00008BD08B5D0F8E4351B6A9847002008BD02
:1082D00008B5D0F8E4355B6A9847002008BD30B592
:1082E0000138002423460134055D002DFAD1DBB2AC
:1082F00001335B0013800B7003234B70022310F8D3
:10830000014F04B930BD5A1CD2B2CC5402338D5443
:10831000DBB2F4E710B5074C2068FF2808D0064907
:10832000D1F80C2801F5016100F070F8FF232360FB
:10833000002010BD00000020481800204323014801
:108340000B80704704000020122301480B80704707
:1083500047000020042301480B807047590000208B
:1083600008B50A4602490348FFF7B9FF084608BDA9
:1083700060200020A19B060808B50A460249034870
:10838000FFF7ADFF084608BD60200020B59B06083A
:1083900008B50A4602490348FFF7A1FF084608BD91
:1083A00060200020BA9B060808B50A460249034827
:1083B000FFF795FF084608BD60200020C49B060813
:1083C00008B50A4602490348FFF789FF084608BD79
:1083D00060200020CF9B06087047704770477047A9
:1083E00070477047044B00200522C3F80828C3F8E3
:1083F0001809C3F81C09704748180020024B0020D8
:10840000C3F80808704700BF48180020212838B575
:108410000C461BD022282BD0202815D1A1B1072A29
:1084200012D11A4DD5F81C3913B1096800209847AC
:108430002368C5F82039237985F82439637985F8CC
:108440002539A37985F82639002038BD0029FBD0CD
:10845000072AF9D10D4BD3F820290A6093F8242973
:108460000A7193F825294A7193F826398B71EBE745
:108470000029E9D0022AE7D1044BD3F81839002BA0
:10848000E2D0098800209847DEE700BF48180020A6
:1084900030B50E4CD4E900329A1AC2F30A020A44EB
:1084A000B2F5006F10D801440022814203D102B11D
:1084B0002360002030BDE21810F8015B1572013313
:1084C000C3F30A030122F0E70220F3E74818002073
:1084D000202301480B8070475D00002012230148D3
:1084E0000B8070477D000020042301480B807047FB
:1084F0008F0000200A4608B5044920B90448FFF758
:10850000EEFE024808BD0348F9E700BF6F210020D6
:10851000DD9B0608F59B060808B50A460249034894
:10852000FFF7DDFE084608BD6F2100200D9C060800
:1085300008B50A4602490348FFF7D1FE084608BDC0
:108540006F210020209C060808B50A46024903480E
:10855000FFF7C5FE084608BD6F2100202B9C0608CA
:10856000002370B54D1C1E46040FB0F1204F34BFE0
:108570003034373401F8134005F813600133DCB2AE
:10858000A2424FEA0010EFD870BD1A2310B50B803D
:10859000094BD3F8E807D3F8EC2780180AD0D3F8B2
:1085A000EA4706490822FFF7DBFF04221031204684
:1085B000FFF7D6FF024810BD00F0FF1F9500002016
:1085C000930000204FF400731360034BD3F8303A4C
:1085D0000B600020704700BF481800200020704743
:1085E00001207047012070470020704730B41446C6
:1085F0001A69A24209D30D19AA429B6938BF111BFF
:108600000A46E11830BC53F021BC30BC70477047BB
:108610007047D0ED007AD0ED036A30EE677AE6EE6F
:10862000877AB0EE670AC0ED007A7047D0ED017A24
:10863000F5EE407AF1EE10FA09D1DFED0F7A60EE37
:10864000A70AB7EE007AC7EE207AC0ED017AD0ED26
:10865000017A80ED021A71EE277AC1EE276AD0ED19
:10866000007AC0ED036A30EE677AE6EE877AB0EE04
:10867000670AC0ED007A7047DB0FC940D0ED017A80
:10868000D0ED036A30EE670AE6EE807A90ED000ADC
:10869000C0ED017AB0EE677AD0ED027A37EE677AF4
:1086A000E6EE877AC0ED027A77EEC07AA6EEA70AE8
:1086B00080ED000A704790ED056AD0ED017AD0EDAB
:1086C000006AD0ED025A90ED045A66EE277AB0EEB9
:1086D000407AE6EE807AD0ED066A80ED057AE5EE26
:1086E000A67AD0ED076AD0ED035A80ED066AE5EE72
:1086F000E67AD0ED085AC0ED086AE5EE657AB0EE8C
:10870000670AC0ED077A7047D0ED006AD0ED057AB0
:10871000E6EE807AB0EE407AB0EE670AD0ED037AEA
:10872000D0ED016A67EEC07AE6EE877AD0ED066A90
:1087300076EEA77AD0ED026AC0ED057AD0ED047A24
:1087400067EEC07AE6EE877AC0ED067A7047036876
:108750005A1C02601970704703690133012B0361D1
:1087600006D1002380ED010A80ED000A8360704786
:1087700090ED006A07EE903A70EE466AF8EEE77AFE
:1087800086EEA77A77EE067A90ED027AC0ED017A4E
:1087900030EE670AC0ED007AA6EE807A80ED037AAB
:1087A00080ED027A704703685A1C026019707047A6
:1087B000007970470079C0F3401070470079400994
:1087C000704790F83C20034602F0FF0012B10022EF
:1087D00083F83C2070474FF40063838170474FF467
:1087E0000063838170474FF400638381704710B545
:1087F000054A0423002152F8044B844208BF42F882
:10880000041C013BF7D110BDA82200203548F0B56B
:10881000B0F87E3AB0F8705AB0F9884AB0F9766A82
:10882000B0F982CAB0F9907AED1AB0F87C3A6B438D
:10883000B0F9865A04EBE334ED0295FBF4F505EB51
:10884000E335A5F57A6E0EFB0EF42313B0F9784AE2
:10885000C0F88C5A0EFB06F60EFB04FEB0F9804AF7
:108860005C4303FB0CFCF612241406EBEC2C04EB2B
:108870006E34B0F9746AB0F87A3A02340CEB860CB4
:10888000A410D0F8946A04F500440CFA07FC634382
:108890000CF1020C4CF25030DC0BA6EBAC0640FAAB
:1088A00007F3734355BF5B00B3FBF4F3B3FBF4F37F
:1088B0005B0071B1181240F6DE34404360430A4C4D
:1088C00000145C4300EB244000F6CF6003EB201360
:1088D0000B6022B10A235D4308352D11156001207C
:1088E000F0BD00BF4818002043E3FFFF01207047A0
:1088F000012070472DE9F843604F1546D7F8984A94
:10890000B7F89C2AB7F8A29AC2EB24135200C2EB24
:10891000E402B7F99E4A624303FB03F4B7F9A03AB5
:1089200024135C43A41304EBE224B7F9A63AC7F876
:10893000B44A0E46A4F5FA3181FB01CE4FEAE37842
:1089400003FB0EF20CFB0822A3FB0C389044B7F992
:10895000A42A82FB01021B0A120343EA086342EACB
:10896000105200031B1842EB282202F50042A3FB21
:10897000093809FB02884FEAE8734FEA680253EAB4
:1089800068084FF000006DD0B7F9AC9A4FEAE9786B
:1089900009FB0EFE0CFB08EEA9FB0C9CE644B7F9A4
:1089A000AACA8CFB01814FEA414C4FEA484111EBC6
:1089B0000909D7F8B81A4CEAD83C4EEB0C0CC1F5B3
:1089C000801E0EF00048B7F9A81A48EA5E0810EBBE
:1089D00009004FEACE7EBEEB00000CEBC10168EB54
:1089E000010C40F63548A0FB080108FB0C114FF0C4
:1089F00031FEB7F9B23A4FEA613E4FEA503C4CEAD9
:108A0000C14C03FB0EF24FEAE3790CFB0929A3FBEF
:108A10000C324A4403FB0EFE0CFB02EEA3FB0C3CA3
:108A2000B7F9B02AE6445B0E43EACE1313EB000C11
:108A3000804602FB01F34FEAE27941EB6E6EA2FB46
:108A4000082809FB00314144D00C40EA41301CEBBE
:108A50000000B7F9AE3A4EEBE141000A40EA01608E
:108A600000EB03100EB1000A306025B104EB840462
:108A7000803424122C600120BDE8F88348180020BF
:108A800031B10A4BD3ED067AFDEEE77AC1ED007AFB
:108A900052B1064B9FED067AD3ED077A67EE877ADF
:108AA000FDEEE77AC2ED007A012070470423002032
:108AB0000000C8422DE9F74FCDE90012554AB2F83F
:108AC000EA3AD2F8DC1AB2F8E66AB2F8EC7A1B029B
:108AD000C91AB2F8E83A6EEB0E0EA3FB010403FBD1
:108AE0000E44B2F8E43AC00940EA44601B04C018DE
:108AF000A6FB013506FB0E55B2F8E26A4FEA1323D6
:108B000043EA05634FEAC6364FEAE41444F1000431
:108B10009B19A7FB012607FB0E664FEAD25242EAD9
:108B200046224FEA252545F10005F61512F5FA6CA7
:108B300046F1000BBCF5FA6F7BF100074CDAA2FBA3
:108B400002784FF0050A02FB06F908EB4909A7FB7A
:108B50000A780AFB09884FEA570949EAC879BF0829
:108B6000B0EB090047EA887764EB6804DB1B2A4F07
:108B700065EBA805BC454FF0FF377BEB070720DA14
:108B800040F6AC57D21946F100065643A2FB0272DA
:108B900002EB46064FEAC608FA00BA1A48EA5778C6
:108BA00066EB0808101844EB08044FF00B08A7FB0D
:108BB000087208FB06267F0847EAC677DB1B65EBD1
:108BC000660501FB0EFEA1FB011202EB4E0EC90F62
:108BD00041EA4E01BCEB010C009A9AB10D4AD2F861
:108BE000F01AA1FB032301FB0535520D42EAC52211
:108BF000121A4FEA6555009B65EB0404D20B42EA5A
:108C000044421A60019B0BB1C3F800C0012003B0BD
:108C1000BDE8F08F4818002024FAFFFF01207047BC
:108C20002DE9F041476906468846002F59D103686F
:108C3000C3F30D0515B3D8F800803568FFF7B4FA13
:108C4000092840F08780454C236923F44073236151
:108C5000236943F400732361236943F00103236113
:108C6000C5F80080FFF7A0FA2369092823F0010363
:108C700023616FD133680433336032E0384A934262
:108C800029D302F58042934224D302F580429342D5
:108C90002AD3344A934229D902F58032934227D904
:108CA00002F50032934225D902F50032934223D9CE
:108CB00002F50032934221D902F5003293421FD9C6
:108CC00002F5802293421DD9B3F1016F1CD3052018
:108CD00009F0A0FF0825FFF767FA092816D04FF022
:108CE000FF373846BDE8F0811025F4E71825F2E794
:108CF0002025F0E72825EEE73025ECE73825EAE7E0
:108D00004025E8E74825E6E75825E4E7134C2369C2
:108D100023F440732361236943F4007323612369BF
:108D200023F0F803236123691D4345F00205256103
:108D3000236943F480332361FFF736FA236923F074
:108D4000020323612369092823F0F80323613FF418
:108D500072AFC4E76FF00107C3E700BF003C0240F9
:108D600000400008FFFF000803682DE9F0410446B9
:108D70004068134483421AD80D468E1804F10C073C
:108D80004FF00008B54202D16069BDE8F081236967
:108D90005A1C2261234415F8011B1973042AF1D1CE
:108DA00039462046FFF73CFFC4E90480EAE74FF06C
:108DB000FF30EAE738B514460D4600294BD0394B51
:108DC0009FED396AD3F8F42A07EE902AF8EEE77A95
:108DD000B3F90C2BC7EE866A03F5316307EE902AD0
:108DE00033F9082C07EE102AF8EEE77A53F8102C26
:108DF000B8EEC77AA6EEA77A07EE902A53F8142C9D
:108E0000F8EEE77AE6EE877A07EE102A33F9062CB9
:108E1000B8EEC70AA6EEA70A07EE902A33F90A2C85
:108E200007EE102AF8EEE77A33F90C2CB8EEC77A81
:108E3000A6EEA77A07EE902AF8EEE77AE6EE877AB2
:108E400093ED007AB8EEC77AC7EE066AA6EEA70AD7
:108E500050F0E6F928601CB3124BDFED136AB3F94A
:108E6000F82A07EE102AD3F8102BB3F9FA3A07EED6
:108E7000902AF8EEE77AB8EEC77A87EEA60A07EEF0
:108E8000903AF8EEE77AF6EE006A60EE277A9FED08
:108E9000070AE7EE267A27EE800A50F0C1F9206033
:108EA000012038BD481800200000F04A0000C842E8
:108EB0002DE9F347038A8689B6B205460C461E4063
:108EC0004FF0004901F14C0701F1340816B902B026
:108ED000BDE8F087B6FA86F329FA03F2D24391B2DD
:108EE000298216401B3B002C40D0042BEED8DFE833
:108EF00003F039342E280300E368D5F82CA02BB1F9
:108F00009B681BB11FFA8AF1201D9847636A33B131
:108F10009B6823B11FFA8AF104F11C009847E36BA8
:108F20002BB19B681BB11FFA8AF140469847636DCD
:108F3000002BCBD09B68002BC8D01FFA8AF1384693
:108F400003E0E368696B5B68201D9847BEE7636ACE
:108F5000A96B5B6804F11C00F7E7E36BE96B5B68E6
:108F60004046F2E7636D296C5B68E8E7042B06D89E
:108F7000DFE803F00D0B09070300EB6A0193019B87
:108F8000A4E76B6BFAE7AB6BF8E7EB6BF6E72B6CE0
:108F9000F4E790F84820531C0244DBB280F84830D4
:108FA00082F8341090F849200AB1132B01D94EF001
:108FB000B5BB7047002280F849204EF0AFBB70B5BA
:108FC000124D95F8143B002BFBD104464618B442D1
:108FD00004D1002070BD012009F075FDD5F8183BC3
:108FE000D5F81C2B0133C3F30A039342F3D0D5F811
:108FF000183B14F8012B2B4483F8202BD5F8183B91
:109000000133C3F30A03C5F8183BE0E74818002012
:1090100038B50C461146FFF717F948B1054D002A3F
:10902000D5F8283204DD2046FFF7C9FFD5F82832ED
:1090300038BD00BF40290020F0B590F8CF5590F81A
:10904000CE1590F8D12590F8D03590F8CC7590F8E1
:10905000CDC501EB05218DB203EB022390F8D315AA
:1090600090F8D22585B002EB012207F01F060121FE
:1090700092B29BB28E4204468DF808708DF809C0FA
:10908000ADF80A50ADF80C30ADF80E20C0F8402114
:1090900080F8111100F00C81022E00F01D81002ECD
:1090A00040F09B81BCF1090F5ED8DFE81CF0B600F0
:1090B000F4005D00C8005D0057000A005D00A900D3
:1090C00076002E0A022EADF806200BD0032E25D0F6
:1090D000012E49D1D0F8EC351B68A0780DF10601BE
:1090E000984709E0D0F8E43580789B6A0DF10601D5
:1090F00098474670C4F8F005BDF80620002A47D00E
:10910000BDF80E30002B43D09A4228BF1A46ADF866
:109110000620014620464EF0EFF939E0E9B2052974
:1091200022D8DFE801F003070B0F1317D0F8EC3556
:109130005B68D2E7D0F8EC359B68CEE7D0F8EC3529
:10914000DB68CAE7D0F8EC351B69C6E7D0F8EC3528
:109150005B69C2E7D0F8EC359B69BEE71A4303D1DF
:1091600090F81231032B03D120464BF0B7FE0FE0ED
:10917000016905F07F0680F814610B6865F30A1237
:109180001A430A604EF0CCF92EB1022384F8123152
:10919000002005B0F0BD0123F8E7E9B2904D0129A8
:1091A00085F82C12E0D890F81231022B0FD0032B47
:1091B000DAD1C1B9022380F81231D0F8E43580F851
:1091C00010115B68984720464EF0AAF9E0E70029A5
:1091D000F9D00121032380F8101180F812312046C4
:1091E0004EF086F8EFE790F810110129EBD0D0F897
:1091F000E4355B68984795F82C1284F81011EEE777
:10920000012AB1D190F81231022B04D0032BABD13B
:1092100000F588717EE773497CE790F81231023BD4
:10922000012BA1D86E4B0022C3F83422D0F81821AC
:1092300012B10222C3F834226B4902226AE7012DDF
:1092400008D1C0F81851D4F8E43502A99B6820462B
:109250009847B8E7022D9BD1DAB2002A98D102696B
:109260001B0A023B5268032B03D8DFE803F00C0E05
:109270001012012363F30612594BC3F8382201235D
:1092800084F816319FE70223F4E70323F2E704236F
:10929000F0E70523EEE790F81231023B012B3FF691
:1092A00063AF012D7FF474AF0023C0F81831CAE713
:1092B00090F81221032A7FF457AFDBB2012B3FF65F
:1092C00053AFD0F8E43502A99B689847BDF80E303B
:1092D000002B7FF45DAF76E707F06007202FD9B24F
:1092E00005D1D0F8E43502A99B68984750E7BCF156
:1092F000010F31D0BCF1030F1ED0BCF1000F7FF481
:1093000047AF90F81221022A5AD0032A7FF42CAFDB
:1093100013F0800F4FF02802314B59D001F07F013C
:1093200002FB010191F81E21002A4FD00122C3F84F
:109330003C222E490222EDE690F81231022B3FD05A
:10934000032B7FF411AF002D7FF47DAF4A063FF46D
:109350007AAF4DF0D9FF76E790F81221022A2FD08C
:10936000032A7FF401AF002D7FF412AF11F07F00CC
:109370003FF429AF5BB2002B4FF02802B5BF02FBD0
:10938000004102FB014101F58E7101F55D71002282
:10939000DB0F08708A704B7004EB8000C9786BB1EA
:1093A0008269136802396FF3555301298CBFC3F3E7
:1093B0000071012161F31C73136044E7426DF0E713
:1093C0004B063FF4E5AE4DF09FFFE1E60022AEE72D
:1093D00002FB010191F87623A6E707F08001F2E78E
:1093E00040290020702B0020742B00207C2B0020B3
:1093F00010B5044671BB90F81131032B1BD1D0F886
:109400009023D0F87C339A4217D9C178012908BF3C
:10941000D0F88013A2EB030204BFC918C0F8801370
:10942000934228BF1346C0F890239BB2D0F8802304
:1094300000214EF025F9002010BDD0F8E4351B695D
:1094400023B190F81221032A00D1984720464EF00C
:1094500067F8F0E7D0F8E4359B69002BEBD090F883
:109460001221032AE7D19847E5E770B50A7812F090
:10947000600406460D462AD0202C2FD1CC884B788C
:10948000FCB112060CD51F4922461846FEF7BEFF56
:10949000EA881C4930464EF02FF80024204670BD63
:1094A000194A1360194A0323C2F80C4880F8113195
:1094B000C0E9E444234602F5016200214EF0E0F8E1
:1094C000EBE7022211441846FEF7A0FFE6E74B78CF
:1094D0000A2B08D00B2B0BD0062BDFD130464BF0DC
:1094E000FDFC0224DAE70A4901224EF005F8D5E72F
:1094F0008B781BB9074BC3F84042CFE74BF0EEFC2B
:10950000CCE700BF582000200000002048180020B1
:10951000802B00204029002010B5282303FB0101E7
:10952000074AB1F88C1304461046FEF7B1FF2046F7
:10953000034A402301214EF0A3F8002010BD00BFD4
:10954000842B002070B50F4DD5F88C32044643B102
:1095500095F8902295F8A432134302D101214DF0E1
:10956000D3FE812120464DF0CFFE95F8A432022B88
:1095700007D12046044ABDE870401F2301214EF068
:109580007FB870BD40290020C42B0020002310B5F7
:109590001946044640224DF012FF40228021204609
:1095A00000234DF00CFF012384F81231D4F8E83584
:1095B000A0785B689847002010BD38B5402204466B
:1095C000022381214DF0FBFE20460223402201218F
:1095D0004DF0F5FE20460323082282214DF0EFFED8
:1095E000084B0222002583F84B2083F84C50FEF7ED
:1095F000F9FE01212046044A40234EF041F8284656
:1096000038BD00BF00000020842B002010B5812150
:1096100004464DF0ABFE204601214DF0A7FE20464A
:1096200082214DF0A3FEFEF7E9FE002010BD10B52B
:10963000812104464DF09AFE204601214DF096FE10
:10964000024B002083F8A50210BD00BF4029002076
:1096500070B5234D95F8142B012A03462FD1214EC6
:10966000D6F8A84214B985F8144B24E0402C24D82D
:109670000ABF0222A4B285F8142BD5F81C1B1A4A83
:109680000A44C3E9542240F201110022A3F8441114
:10969000C3E9564203F5A27118464DF058FFD5F8BC
:1096A0001C3B2344C3F30A03C5F81C3BD6F8A8327D
:1096B0001B1BC6F8A832002070BD4024DDE7022A3B
:1096C000F9D1002440F20112C0E95444C0E95644E3
:1096D000A0F8442100F5A2714DF039FFC3E700BFA7
:1096E00048180020402900206823002070B52B4E28
:1096F000D6F8AC320F2B03F1010203D0C6F8AC222E
:10970000002070BD264D0023C6F8AC3295F8143BFE
:10971000002BF5D1D5F81C2BD5F8183B9A42EFD089
:10972000D5F81C2BD5F8183B9A4295BFD5F8184BA5
:10973000D5F81C4BD5F81C3BC4F5006498BFE41A5F
:10974000402CC6F8A84221D9012385F8143B4024B7
:10975000D5F81C2B134B1344C0E9543340F20112CB
:109760000023C0E95643A0F8442100F5A2714DF052
:10977000EEFED5F81C3B2344C3F30A03C5F81C3B9B
:10978000D6F8A8321B1BC6F8A832B9E70EBF0223D1
:109790000123A4B285F8143BDAE700BF402900207A
:1097A000481800206823002070B50446144EFFF7C7
:1097B0003EFF20460223402281214DF000FE402240
:1097C0000121204602234DF0FAFD0025D6F8B032E3
:1097D00086F8A5521B6886F8A45228469847E06888
:1097E0004DF06CFFE06801214DF07EFF20461F2305
:1097F00006F5217201214DF043FF284670BD00BFE0
:109800004029002008B500204BF0CEFD002008BD07
:109810002DE9F843089D0E461746002120220446F4
:10982000984654F0B3FC4DB12B68E3811A0C6B6879
:109830002282E3821A0C6B892283638230464EF0C7
:10984000E1F8FB0604D400F1FF39B9F1FF3F41D143
:10985000082802464FF0FF39A8BF082200254FF024
:109860002033236063603146204652F0EFFA234AEA
:10987000228104F1080309F10101A27218462A4667
:10988000314452F0E3FA621E0346E01D12F8011F54
:10989000A1F16105192D9CBF203911708242F5D1CB
:1098A000184604F10B0210F8013BA3F161011929DC
:1098B0009CBF203B00F8013C9042F4D11823237355
:1098C0004FEA1843A382099BE772A4F81A80E36168
:1098D000BDE8F88316F809302E2B02D009F1FF39C4
:1098E000B3E74A46A0EB0905082A05F1FF35A8BFF2
:1098F0000822032DA8BF0325B1E700BF20202000C8
:109900002DE9F04F012085B00D46164699464BF0E3
:109910004BFDB64F04352C1FB9F1000F06D1484658
:109920004BF042FD484605B0BDE8F08FD7F8482A15
:10993000B24200F2B780D7F858AAA6EB02084FEA65
:10994000D803DAF830200233934208F0070803D333
:10995000DAF83820934218D95146184603934BF051
:109960000DF8039B824670B9A5F1080305F5FC725A
:109970009F4943F8041F9342FAD109F1FF39013698
:1099800005F50075C7E7C7F8580A9AF80420002AB9
:109990006DD04FF400720021204654F0F7FBDAF846
:1099A0004030B8F1000F47D1CDE9008805F11C0B1C
:1099B00043BB43462046D7F8341A0822FFF728FF56
:1099C0005C464FF4F073DAF8448004EB030AB8F114
:1099D000000FD2D05445D0D098F80420D8F8001009
:1099E000D8F8303004F1200B08F11C00B2B300228B
:1099F000CDE9000211222046FFF70AFF5C46D8F8A5
:109A00004880E4E7DAF830307A4911222046FFF73F
:109A1000FFFEDAF840301A6C05F13C04CDE900880D
:109A200042B94346744911225846FFF7F1FE4FF4FC
:109A3000E073C8E71B6BF5E7002B0CBF0122022285
:109A4000C2EB0812DAF84480B8F1000F03D0013AF3
:109A5000D8F84880F8D14FF40073B6E798F805C0FD
:109A6000D8F81020CDE900024CF02102C3E7DAF863
:109A700028B0BBF1000F06D14FF400720021204640
:109A800054F084FB79E7DAF830209B1ADAF80C20DE
:109A900008EBC30802EB482253464FF400712046FE
:109AA000D8476AE7002E64D14FF400723146204651
:109AB00054F06CFB802385F8BA310C2385F8BE3155
:109AC000D7F8382A4D49D7F8303AC4F8C6218A4227
:109AD000C4F8CA3118DDFF2285F8BB2185F8BD2105
:109AE00085F8BC21454A013B934228DDFF2385F8D8
:109AF000BF3185F8C13185F8C031552385F8FA3179
:109B0000AA2385F8FB3138E73F2192FBF1F1C1EB45
:109B1000811C43F6C16492FBF4F4A2EB0C02A0108A
:109B200020F03F000132024385F8BC21FF2291FB67
:109B3000F2F2114485F8BD4185F8BB11D2E73F220E
:109B400093FBF2F2C2EB821443F6C16093FBF0F098
:109B50001B1B811021F03F0101330B4385F8C031FD
:109B6000FF2392FBF3F31A4485F8C10185F8BF2166
:109B7000C3E7D7F83C3A9E4242D152232370637028
:109B80006123A37084F8E731D7F8503AC4F8E8317C
:109B90004FF000084FF0FF3341227221E27084F849
:109BA000E41184F8E51184F8E62184F8EC3184F8B6
:109BB000ED3184F8EE3184F8EF314FF4F072414624
:109BC000284654F0E3FA5523C5F8EC81C5F8F08136
:109BD000C5F8F48184F8FE316FF0550384F8FC81F8
:109BE00084F8FD8184F8FF31C7E600BF48180020E3
:109BF000DEADBEEFC8CF0608C7CF0608FF03FB00E7
:109C0000D7F8383A9E426DD14FF4007200212046B9
:109C100054F0BCFAEB2305F8043C3B4A582305F802
:109C2000033C902305F8023C136845F8013C536857
:109C3000C5F80330022200234FF0080CF821E3722C
:109C4000227385F809C0A273E37369743F212A73F4
:109C500021764FF0FF31A1763E21D7F8380A2177DF
:109C6000D7F8301A84F82C20091A2162D7F8400A54
:109C7000D7F8441A63760122091AE3766377A3774B
:109C8000E37784F82D3084F82E3084F82F30616229
:109C900084F8302084F83130802385F83C30292343
:109CA00085F83E30942385F83F300E2385F8403008
:109CB0000D2385F84130154B85F842C01A68C5F868
:109CC00043205A68C5F847201A89A5F84B20104A46
:109CD0009B7A85F84D301368C5F84E305368C5F847
:109CE00052300AE7D7F8401AD7F8443A8E4206D3E2
:109CF0009E4207D2711A20464AF064FE3DE69E421B
:109D0000FFF4BAAEF11AF6E7399C0608429C060841
:109D10004E9C060813460A460146184635F0D4BC48
:109D2000024BD3F8B40208F04DBD00BF402900201B
:109D300008B500684DF0ADF9024BC3F8DC0A01200C
:109D400008BD00BF4818002008B500684DF0A1F913
:109D5000024BC3F8F00A012008BD00BF48180020DC
:109D600010B50C4CD4F82832D4F8B8021B1AFA2BD0
:109D700006D9042021F020FA002084F8BC0210BD8E
:109D800011B1D4F8C0320B6012B1D4F8C4321360F0
:109D90000120F4E7402900200E49D1F8883043F42F
:109DA0007003C1F888300C4B1A68002042F00102A1
:109DB0001A6098601A6822F0847222F480321A6065
:109DC000064A5A601A6822F480221A60D860044B4E
:109DD0008B60704700ED00E0003802401030002436
:109DE0000000000870470028ACBF00F16040074B3E
:109DF0004FEA0111ACBF00F5614000F00F00C9B29D
:109E0000B4BF195480F80013704700BF14ED00E090
:109E10002DE9F0479846414B914603EB80020546F9
:109E20009468002C78D02833636004F13E03A3616A
:109E300004F59F73E3614FF48073C4E9043323682E
:109E400094F83D00E160A36306F0DEFD064694F859
:109E5000440294F83CA0271D08B14BF037FC94F85D
:109E6000450208B14BF032FCD4F840321BB12C4A09
:109E7000116B0B43136318F0080F2CD00135EDB2B2
:109E80001EB140F20673F380357218F0100F94F88B
:109E900046221AD00221304606F076FDD4F8481248
:109EA00094F94702FFF79FFF94F9473294F847224D
:109EB000002B07DB02F01F0101228A405B091949D0
:109EC00041F823203846BDE8F08718F0200F14BF72
:109ED00012213221DFE719F0020F0CD06B1CDBB22C
:109EE0001EB140F20652F280337294F846220221EB
:109EF000304606F049FD19F0010FCFD0504606F06C
:109F000083FD0135EDB218B140F20663C3800572DE
:109F100094F846220221BFE72746D3E7CCF1050893
:109F20000038024000E100E00148FEF7A6B800BF9B
:109F3000B40000200148FEF7A0B800BF00030020D5
:109F40007047064A002352F83310814201D1D8B23B
:109F5000704701330E2BF6D1FE20704724F205081E
:109F6000704770B5002828D04C684CB94268156815
:109F70005679AB8902229BB2B24023EA0203AB813D
:109F80008A683AB943681D68AB8923F001031B0452
:109F90001B0CAB81816044B14468216864798D8970
:109FA0000223A3402B439BB28B8132B143681A68D2
:109FB00093899BB243F00103938170BD0B4B30B585
:109FC0001A4600241D79854208D1DD68294203D054
:109FD000142000FB042030BD0029F9D00134062CE8
:109FE00003F11403EED10020F5E700BF480500207F
:109FF00038B503681B681C68254B03F5B86393EDFF
:10A00000007A07EE902AB8EE477AF8EE677A0139BF
:10A0100087EE270A8DB2DFED1F7A30EE270A4FF068
:10A02000FFF81D4A23880138944280B29BB212D0B7
:10A0300002F5806294420ED0B4F1804F0BD0A2F5AD
:10A040008032944207D002F58062944203D002F538
:10A050008062944202D123F070039BB20F4A944273
:10A0600006D002F5806294421CBF23F440739BB279
:10A070002380094BE5629C42208503D003F5806371
:10A080009C4201D1002323860123A38238BD00BF57
:10A09000000000200AD7233C0000014000100040CF
:10A0A00043685A79032A0FD8DFE802F00205080B4B
:10A0B00018683430704718683830704718683C307A
:10A0C00070471868403070470020704710B54368EB
:10A0D0001A685879084B0344012093F8C840138C40
:10A0E000A0409BB223EA00031384138CA1401943C0
:10A0F00089B2118410BD00BFCCF10508024B0348A2
:10A10000D3F8C812FEF7D4BE402900200000014059
:10A1100010B5064C0648D4F8C812FEF7C9FED4F8AC
:10A12000E8120448BDE81040FEF7C2BE40290020F6
:10A13000000001400040014010B5064C0648D4F82C
:10A14000C812FEF7B5FED4F8EC120448BDE8104082
:10A15000FEF7AEBE4029002000000140004401404F
:10A1600010B5064C0648D4F8C812FEF7A1FED4F884
:10A17000F0120448BDE81040FEF79ABE40290020C6
:10A180000000014000480140034B4FF08040D3F8ED
:10A19000CC12FEF78DBE00BF40290020024B0348C1
:10A1A000D3F8D012FEF784BE4029002000040040FE
:10A1B000024B0348D3F8D412FEF77ABE40290020A0
:10A1C00000080040024B0348D3F8D812FEF770BED7
:10A1D00040290020000C00400348D0F8D03513B1CE
:10A1E00000F2C45018477047000000200348D0F820
:10A1F000F03513B100F2E45018477047000000201A
:10A200000348D0F8103613B100F2046018477047C5
:10A21000000000200348D0F8303613B100F224606B
:10A2200018477047000000200348D0F8503613B19B
:10A2300000F2446018477047000000200348D0F83F
:10A24000703613B100F264601847704700000020B8
:10A250000348D0F8903613B100F284601847704775
:10A26000000000200348D0F8B03613B100F2A4601B
:10A2700018477047000000200348D0F8D03613B1CB
:10A2800000F2C46018477047000000200348D0F86F
:10A29000F03613B100F2E460184770470000002068
:10A2A0000348D0F8103713B100F204701847704714
:10A2B000000000200348D0F8303713B100F22470BA
:10A2C00018477047000000200348D0F8503713B1FA
:10A2D00000F2447018477047000000200348D0F88F
:10A2E000703713B100F26470184770470000002007
:10A2F0000348D0F8903713B100F2847018477047C4
:10A30000000000200348D0F8B03713B100F2A47069
:10A310001847704700000020036823F00103036022
:10A320000023036043608360C360036121234361B2
:10A330002A4B984203D13D2243F8082C7047284B02
:10A34000984204D14FF4746243F8202C7047254B97
:10A35000984204D14FF4741243F8382C7047224BC2
:10A36000984204D14FF0746243F8502C70471F4B51
:10A37000984203D11E4A43F8642C70471D4B984203
:10A3800003D11D4A43F87C2C70471C4B984203D1E3
:10A390001B4A43F8942C70471A4B984204D14FF053
:10A3A0003D5243F8AC2C17E0174B9842C3D0174BE3
:10A3B0009842C7D0164B9842CCD0164B9842D1D079
:10A3C000154B9842D6D0154B9842DAD0144B984290
:10A3D000DED0144B9842E2D0704700BF10600240BC
:10A3E00028600240406002405860024070600240B5
:10A3F0003D00002088600240400F0020A060024025
:10A4000000003D20B8600240106402402864024011
:10A410004064024058640240706402408864024014
:10A42000A0640240B86402402DE9F04100220126F8
:10A4300003250B6806FA02FC3CEA030331D10368EA
:10A44000540005FA04FE23EA0E0303600B79D0F8EA
:10A4500000806FEA0E0703FA04FE013B4EEA080E85
:10A46000012BC0F800E011D883681F4087604B794A
:10A470008768A3403B438360436823EA0C0343603F
:10A480008B79476893409BB23B434360C36805FAAE
:10A4900004F723EA0703C360CB79C768A3403B43B3
:10A4A000C3600132102AC4D1BDE8F081204A93680C
:10A4B00003F00C03042B10B520D0082B20D01D4B2B
:10A4C0001B4C0360A3681C4AC3F30313134493F8A3
:10A4D000C4170368CB404360A168C1F382211144D3
:10A4E00091F8C41723FA01F18160A168C1F34231E8
:10A4F0000A4492F8C427D340C36010BD0F4BDFE776
:10A500005368516813F4800F01F03F01536814BF82
:10A510000A4A084AB2FBF1F1054A5268C2F3014205
:10A52000C3F3881301324B435200B3FBF2F3C7E786
:10A53000003802400024F4000000002000127A00DD
:10A54000F0B5446B8668A38923F400531B041B0CED
:10A55000A3818279278A0546BFB2100312F0040F47
:10A560004FEA022100F400506A7927F4405740EA8C
:10A570000700208214BF4FF4805C4FF0000C12F0F3
:10A58000010F0CBF002304239207A28922F4B052CA
:10A5900001F4806122F00C0248BF43F0080341EA55
:10A5A0000C0112040B43120C1A43A281A38A23F458
:10A5B00040731B041B0C85B0A3826846FFF776FF2F
:10A5C000214B9C4203D003F580639C423AD1039B0C
:10A5D000A2891921170401FB03F34FF064014CBF5A
:10A5E0007600B600B3FBF6F3B3FBF1F001FB1033DA
:10A5F0000201A08900044BBFDB001B013233323360
:10A600004BBFB3FBF1F3B3FBF1F303F0070303F02C
:10A610000F0313439BB223816A6BAB7913F0080FCE
:10A62000938A0BBF23F008039BB21B0443F008037B
:10A6300008BF1B0C938293899BB243F40053938110
:10A6400005B0F0BD029BC3E7001001402DE9F843BF
:10A650001E46204B9DF820509DF824709842894654
:10A6600090462CD13B462A4631460020FFF7D0FBCE
:10A6700004460020C4E90700C4E90900C4E90B98B6
:10A680006571A660A7712046FFF75AFFEA0707D554
:10A69000636B4FF6DF721A80DA6842F02002DA60EC
:10A6A000626BAB0742BFD36843F08003D3609389EA
:10A6B0009BB243F4005393812046BDE8F883064BD8
:10A6C000984204D13B462A4631460120CEE7002479
:10A6D000F2E700BF001001400044004081602FE716
:10A6E00041712DE72DE9F043654F07EBC00985B0B7
:10A6F00005464FEAC00899F8D80706F085F90646DE
:10A7000099F8D90706F080F9044699F8DA074AF073
:10A71000DDFF6B1CDBB21EB140F60C12F28033720F
:10A720001CB140F60C22E280237204223A2130460A
:10A7300006F02AF9204604223A2106F025F907EB13
:10A740000803D3F8D4474F4B9C4263D103F5F2334F
:10A750001A6A42F400121A621A6A22F400121A6289
:10A76000474497F8DB37022B6ED0032B6ED0464E52
:10A77000464A012B08BF1646A78827F03F076846C0
:10A780003F04FFF793FE3F0C029A414BB2FBF3F3F9
:10A7900098B20743A780218821F001010904090C20
:10A7A00021803C498E4253D13B4BB2FBF3F2013046
:10A7B00092B2042A80B238BF04222084A283238864
:10A7C0009BB243F001032380238823F4816323F0A9
:10A7D00002031B041B0C43F4806323804FF480436B
:10A7E0002381238823F080031B041B0C23802388F0
:10A7F0009BB243F001032380284B03EB4513012256
:10A8000083F80123002283F8005383F8022305B064
:10A81000BDE8F083224B9C4209D103F5F0331A6A5C
:10A8200042F480021A621A6A22F4800297E71D4BF2
:10A830009C4295D103F5EE331A6A42F400021A6283
:10A840001A6A22F400028AE7124E95E7124E93E745
:10A8500006EB4606B2FBF6F291B2C2F30B020AB95E
:10A8600041F0010141F400424FF496714B434FF423
:10A870007A71B3FBF1F301339BB223849EE700BFEF
:10A880000000002000540040801A060000350C0033
:10A8900040420F00A0860100400D03004029002027
:10A8A00000580040005C00402DE9F047B74D4601DC
:10A8B00005EB401908F0C8F899F90023B44B884615
:10A8C000D10003EBC2020746D2F8D44799F802231D
:10A8D000013A142A00F28380DFE812F0790089003F
:10A8E0009F00B700C200CC00D500EA00F5000A01C5
:10A8F000150164017D01A30106021702290232023B
:10A900004302670215005F184FF0090A97F8D8074D
:10A9100006F07AF8044697F8D90706F075F8B5F806
:10A92000603301339BB207462046A5F8603305F03B
:10A93000F8FF384605F0F5FF1121204605F0FBFF32
:10A940001121384605F0F7FF4FF0650803E00520B8
:10A95000002108F0A7F8204605F0DAFF10B9B8F199
:10A960000108F4D1204605F0E1FF0021052008F0A0
:10A9700099F8204605F0D5FF0520002108F092F84F
:10A98000BAF1010AE0D1204605F0D0FF00210520F0
:10A9900008F088F8384605F0C9FF0021052008F0C6
:10A9A00081F8204605F0BDFF0520002108F07AF867
:10A9B000384605F0B6FFAB1993F90003431C01D0EC
:10A9C000FFF790FEAB19002283F8022307E02388EB
:10A9D00013F4007340F02381AA1982F80233AB19F3
:10A9E00093F80233002B7FF465AFBDE8F08723882E
:10A9F00023F400631B041B0C238023889BB243F4C5
:10AA00008063238023889BB243F480732380AB1937
:10AA1000C3E9C278032283F802235E492046FDF78A
:10AA2000D4FBAB19002855D093F812235AB993F8E8
:10AA30001323FF2A04D193F810230AB10A22C3E793
:10AA4000AB190422C0E70F22BEE7AB1993F811231C
:10AA500002F0FE022282C3E9C278052283F80223B3
:10AA60004D492046FDF7B1FB002800F07081AB197D
:10AA70000622A9E7AB1993F813232282C3E9C2780F
:10AA8000072283F8022345492046FDF79EFB002854
:10AA900000F05D81AB19D3F814233AB9228892B241
:10AAA00042F400722280C3E9C2780EE108228BE7EB
:10AAB00023889BB243F480732380AB19C3E9C27827
:10AAC000092283F8022333492046FDF77EFBAB19A8
:10AAD0000028B3D1D3E9C20142F21072381A68EBF0
:10AAE0000101904271F10002FFF479AF15226BE78A
:10AAF000AB1993F8112342F001022282C3E9C27814
:10AB00000B2283F8022326492046FDF75EFB00282E
:10AB100000F01D81AA19D2F81433012B1AD1238811
:10AB200023F480631B041B0C2380EFF3118110239B
:10AB300083F31288238B23889BB243F40073238012
:10AB4000CBB283F311880C2382F80233AB19C3E92B
:10AB5000C27844E7022B15D123889BB243F40063EB
:10AB60002380EFF31181102383F31288238B238832
:10AB700023F480631B041B0C2380CBB283F3118866
:10AB80000D23E1E7238B0E23DEE700BF40290020E1
:10AB9000000000200100030082000700840007007D
:10ABA0000200030086492046FDF71AFBAB19002876
:10ABB00090D0D3F81823511CC3F81813218A1170B0
:10ABC000D3F81423013AC3F814230122C3E9C2784D
:10ABD00083F81C23F8E67B492046FDF701FBF0B122
:10ABE000EFF31182102383F3128823889BB243F47E
:10ABF00000732380AB19D2B2D3F81813481CC3F8E2
:10AC00001803208A087082F31188D3F81823511C86
:10AC1000C3F81813218A11706FF00102D3E7AB1942
:10AC200058E768492046FDF7DBFAAB1900283FF4E6
:10AC300051AFD3F81423032A03F5427130D122888F
:10AC400022F480621204120C2280EFF31180102291
:10AC500082F31288D3F8182302F1010CC3F818C349
:10AC6000B4F810C082F800C0228892B242F4007298
:10AC70002280C2B282F31188D3F81823501CC3F883
:10AC80001803208A1070D3F81423023AC3F814234F
:10AC90000C2283F80223C3F80873C1F804809EE6EF
:10ACA000022A14D8228822F480621204120C228014
:10ACB000228892B242F400722280228AC3F808737A
:10ACC000002283F81C23C1F8048001227CE6D3F81B
:10ACD0001823501CC3F81803208A1070D3F81423CB
:10ACE000013AC3F81423D6E7238823F480631B04B6
:10ACF0001B0C2380AB1993F8112302F0FE02228271
:10AD0000C3E9C278102283F802232F492046FDF7B9
:10AD10005CFAE0B1AB1993F81323FF2A04D193F83E
:10AD200010230AB113224FE6AB1911224CE6AB19DE
:10AD300093F813232282C3E9C278122283F80223F4
:10AD400022492046FDF741FA08B1AB19EAE720494C
:10AD50002046FDF745FAAB1900283FF4BBAE14229C
:10AD600032E6AB1903F54270D3F8142382B1D3F85D
:10AD70001813013A11F801CBA4F810C0C3F814233A
:10AD8000C3F80873C3F81813C0F8048012221BE636
:10AD9000228892B242F4007222800122C3F8087322
:10ADA00083F81C23C0F804800EE623889BB243F48A
:10ADB000007323804FF6FF33A382AB1973E600BF05
:10ADC000400000100400001082000700840007000B
:10ADD0000004001038B5114C04EB401494F80153F2
:10ADE000D5B1C4F81433049BC4F81833002384F895
:10ADF0001C330223490084F8132384F80233012210
:10AE00009DF8143084F8111384F8122384F8103359
:10AE1000FFF74AFD94F81C53284638BD402900200E
:10AE200038B5114C04EB401494F80153CDB1C4F87B
:10AE30001433049BC4F818330223490084F8132305
:10AE400084F8023300229DF8143084F8111384F83A
:10AE5000122384F81C2384F81033FFF725FD94F89F
:10AE60001C53284638BD00BF40290020F0B587B0EC
:10AE7000002300930193744B1A6842F480321A60E5
:10AE80001A6802F400320192009A01320092019A8B
:10AE90001AB9009AB2F5A04FF2D11B6813F400332F
:10AEA00018BF01230193019B012B40F0B180664B39
:10AEB00066491A6C42F080521A640A6842F44042B1
:10AEC0000A609A689A609A689A609A6842F4805216
:10AED0009A605F4A5A601A6842F080721A601A6873
:10AEE0009201FCD55B4A40F2027111609A6822F02F
:10AEF00003029A609A6842F002029A60524A93688A
:10AF000003F00C03082BFAD19368534C03F00C03A5
:10AF1000042B7FD0082B7FD0504BC4F8C0354A4B50
:10AF20004F4D9A684F48C2F303122244002692F80C
:10AF3000EC17D4F8C025CA40C4F8C0254A4AEA60D4
:10AF40005A6F4A4AAA605A6B22F080025A635A6FBB
:10AF500042F080725A67196B454A0A431A635A6B6A
:10AF60005A631A6C42F0875242F4F61242F41F629E
:10AF700042F00F021A64596C3E4A0A435A6402A90D
:10AF800048F2FF73CDE902364FF6FF77FFF74CFA30
:10AF900000F580600297FFF747FA00F5806002979E
:10AFA000FFF742FA00F58060FFF73EFA00F5806097
:10AFB000FFF73AFA0846FFF779FA029B2E4AB3FBED
:10AFC000F2F32E4AC2F86433D5F8FC302C4A43F031
:10AFD0008073C5F8FC302B4BC3F8B02F5E601A6845
:10AFE00042F001021A60D4F8C0354FF47A72B3FB14
:10AFF000F2F3013BB3F1807F08D24FF0E0225361BE
:10B00000F02385F8233007239661136107B0F0BD64
:10B0100000BFFDE71C4B80E75368516813F4800FB5
:10B0200001F03F01536814BF174A0C4AB2FBF1F11B
:10B03000054A5268C2F30142C3F3881301324B43FD
:10B040005200B3FBF2F368E70038024000700040A2
:10B0500008304004003C0240000000200024F400BE
:10B0600000ED00E0000002400003FA0500000008C7
:10B070001F9067003357070040420F00402900200F
:10B0800055CEACC5001000E000127A0082B000235B
:10B090000193054B0193019B03EB80000190019B01
:10B0A000196002B0704700BF5028004082B00023F2
:10B0B0000193054B0193019B03EB80000190019BE1
:10B0C000186802B0704700BF5028004010B51C201F
:10B0D00005F09AFC1121044605F02DFC204605F0F0
:10B0E00025FCC82007F0EFFC2046BDE8104005F025
:10B0F00018BC436D064A1A61C278012A06D100F2D3
:10B10000CC5058611A684FF080221A60704700BF17
:10B110001800086038B5044600296FD190F8113145
:10B12000022B2AD1D0F83821D0F824118A4232D902
:10B13000C378012B04BFD0F828315B18A2EB0102C1
:10B1400008BFC0F828314FF48071D0F82831C0F81A
:10B150003821002592B2A0F81C11C0F82C31C0F89B
:10B160003451C0F8302100F58E714CF073F92B4644
:10B170002A46294620464CF083FA94F81631012BD2
:10B1800007D1244A2369D2F838225A60002384F870
:10B190001631002038BDD0F83C31B3FBF1F501FB8E
:10B1A0001535A5B9994212D8D0F8402193420ED254
:10B1B0004FF48073C0E94A55C0E94C55A0F81C31E2
:10B1C00000F58E714CF046F9C4F84051CFE7D4F841
:10B1D000E435DB682BB194F81221032A01D1204613
:10B1E0009847052384F81131002320461A46194652
:10B1F0004CF046FA2046FFF77CFFBEE7D0F8E43576
:10B200005B69002BC5D090F81221032AC1D1984761
:10B21000BFE700BF4029002070477047704710B556
:10B22000114C94F87233CBB14FF0E022D2F8103DBC
:10B2300023F00603C2F8103DFEF7AEFD94F872331A
:10B2400063B1D4F878339B68DB0707D5D4F874244E
:10B25000136823F0030161F307031360034B4FF4FA
:10B2600080225A6110BD00BF40290020003C0140EF
:10B270002DE9F04F974CD4F874335A69D0078DB04C
:10B2800000F1A4825A699B691340019300F09E82E9
:10B29000C3F307430293019B190311D5D4F8783304
:10B2A000DFF83C929E69DB6904F55A7B1E40360C40
:10B2B00004F56F774FF00008DA46002E40F0168153
:10B2C000029B5A070FD5D4F87833834E9F69DB6908
:10B2D0001F40BFB2A6F118054FF00009A6F560782F
:10B2E000002F40F04881019B9DF80470980741BFF2
:10B2F000784BD3F8743302225A61019B002B1BDA7E
:10B30000744D95F872333BB1D5F87424136823F06B
:10B31000030161F307031360D5F878236F4853687E
:10B3200023F0010353606E4BD3F814389847D5F8D7
:10B3300074334FF000425A61019B1905C3F307268D
:10B3400031D5644D00238DF81F3095F87A348DF88F
:10B350001F30634B05F55A70D3F810389847D5F86D
:10B360007423D5F878334FF400619B68516195F8E8
:10B370007223C2B1DA0716D595F87D34012B12D1AC
:10B380009DF81F30032B0ED1D5F874341A6842F0A3
:10B3900001021A601A6842F003021A60514A1369E6
:10B3A00043F0060313613B070AD54A4D4C4B05F5A4
:10B3B0005A70D3F808389847D5F8743308225A6180
:10B3C000FD0615D5434BD3F87403826922F01002B1
:10B3D0008261026AC2F34341022902F00F0500F0C4
:10B3E0008681062900F0AA81836943F010038361F6
:10B3F000F00637D5374DD5F87823D5F87403536860
:10B40000002723F00103536039464CF06DF9B8462C
:10B4100095F869033B4605F56075FF218342C0F04E
:10B420009B81D4F878332D484FF0FF329A614FF06A
:10B430000112DA610B2262F3070762F307085F610A
:10B44000C3F810801A686FF30A121A60FFF751FEF2
:10B45000D4F8743321484FF480525A61204BD3F80A
:10B460000C389847B10640F193811A4CD4F87833E0
:10B47000D4F8800399680268C1F34101022906BF2C
:10B48000032161F30A026FF30A0202605A6842F470
:10B4900080725A6008A8FFF709F8D4F87413D4F83A
:10B4A0007803CB68099A6FF38D23CB6085680E48CB
:10B4B000C5F34105284490F8CC00032840F053819F
:10B4C000002284F86A234FF40072A4F86C23092246
:10B4D00058E100BF40290020C02C0020A82C0020EB
:10B4E0000000002000ED00E0CCF10508F2073BD59C
:10B4F0005FFA88F104EB8103D3F8BC339D68D4F87C
:10B5000078335B691D40EB0720D594F86B033B68EB
:10B510000125A8429D6007D11869DBF87C33C0F390
:10B5200012001B1ACBF88C33D9F8FC3750469847D9
:10B5300094F86B33012B09D1B8F1000F06D194F8C0
:10B540007934052B02D15046FFF7D3FDA80742BF3F
:10B550003B6802259D60290706D5D9F80438504676
:10B5600098473B6808229A6008F10108760804377A
:10B570000BF1280BA1E6FB0779D5D8F878335FFAF1
:10B5800089FA1969586B08EB8A0220FA0AFBD2F88B
:10B5900080234FEACB1B92685FFA8BFB4BEA010BCF
:10B5A0000BEA020B1BF0010F1ED05A6BA8484FF09C
:10B5B000010B0BFA09F122EA01025A633368C3F85E
:10B5C00008B0A44B5146D3F80038984798F86B332D
:10B5D0005B4509D1B9F1000F06D198F87934042BF5
:10B5E00002D19B48FFF785FD1BF0080F1EBF336893
:10B5F0004FF0080BC3F808B01BF0100F1EBF3368E4
:10B600004FF0100BC3F808B01BF0400F1EBF33689B
:10B610004FF0400BC3F808B01BF0020F1EBF336899
:10B620004FF0020BC3F808B01BF0800F1FD0D5E914
:10B630004C329B1AD5F82421D6F800E098F86BB369
:10B64000DEF81800934228BF13460333D8F8782356
:10B6500003929B080AF1320A049308EB8A0A049BBE
:10B6600080B2984203D9D5E94C03984205D809F134
:10B6700001097F080436283532E6C01AD5F824318E
:10B68000984228BF1846C31C9B080493BBF1000FC7
:10B690001BD0D5F82811D5F834210144C5F828115C
:10B6A000D5F8301102448A42DEF81800C5F834217A
:10B6B000D5D1039B95F81C115A6B012303FA01F1B4
:10B6C000039B22EA01025A63C9E782B2DAF87013D7
:10B6D000D5F828C10332931005930A465946059BB5
:10B6E0008B42D6D05CF8213013600131F7E747F682
:10B6F000F07111423FF478AE282101FB0531C2F30D
:10B700000A12D71CD3F838E4D1F8E8C6BF100021DC
:10B710008F420DD1282101FB0533D3F8E8161144DF
:10B72000C3F8E816D3F8F4160A44C3F8F4265BE627
:10B73000DEF800804CF821800131E9E7D3F83814B5
:10B740000F68C3F834790968C3F83819282101FB58
:10B750000533C2F30A12E5E755F8042B9160AA6B92
:10B76000013391605AE6012084F86A034020A4F86E
:10B770006C03A0F56400384CA0F562401044A04270
:10B7800027D80E2262F38D23CB604FF400534B6118
:10B79000029BDA060BD5314C2E4B04F55A70D3F8C8
:10B7A00018389847D4F874334FF480125A61029BCA
:10B7B0009B060BD5294C274B04F55A70D3F81C383F
:10B7C0009847D4F874334FF400125A610DB0BDE8B5
:10B7D000F08F234CA2F57400A0F51050A04201D8C0
:10B7E0000D22CFE71F48204C1044A04201D20C226A
:10B7F000C8E71E4CA2F18C70A0F54340A04201D8CE
:10B800000B22BFE71A481B4C1044A04201D20A2267
:10B81000B8E71948194C1044A042FFF458AE184C30
:10B82000A2F1B770A0F55850A04201D20822A9E7B2
:10B830001448154C1044A04201D20722A2E7134835
:10B840001044134A904234BF062205229AE700BFF3
:10B85000A82C0020000000203F420F0040290020BB
:10B86000DFC810002013FBFE20D61300FF6918006C
:10B8700000D3CEFE40771B00C05BB3FEC091210019
:10B8800040AC2700C01D6AFE40E13300803C36FE1C
:10B89000E09C410070B5124D124BC5F85C3940F286
:10B8A0000112002385F8A532A0F84421C0F85C31CC
:10B8B00005F65C120D23C0E95422044685F8681988
:10B8C000C0F8583100F5A2714BF041FE05F5217228
:10B8D00020461F23BDE8704001214BF0D1BE00BFC0
:10B8E000402900205553425310B5074B93F891124D
:10B8F000044649F0C7F8002804DA20460121BDE8D3
:10B900001040C7E710BD00BF40290020F8B50B78F4
:10B9100013F0600506460C4638D0202D74D14A78C5
:10B92000FE2A05D0FF2A1CD049F0D8FA02252BE0C8
:10B930004D88A5B9CF88012F11D11A060FD5334CE8
:10B94000D4F8B0329B699847C0B284F86C0930B122
:10B950003A4604F66C1130464BF0CEFD14E030460A
:10B96000E2E74A88002AFAD1CD88002DF7D11B06DC
:10B97000F5D4264A012182F8A55282F8A4121F2389
:10B9800002F521724BF07CFE2846F8BD4B780A2B5D
:10B9900024D00B2B25D0012BF6D194F904308988C3
:10B9A000C068002B22DA01F07F014BF09DFE217967
:10B9B000164F30464BF0DAFC022321794022304604
:10B9C0004BF0FDFC97F8A432022B12D181213046B6
:10B9D0004BF09AFC002387F8A432D5E70C490122EA
:10B9E000BAE70A4B4A8883F86D29CDE74BF066FE2B
:10B9F000DDE794F90420002AC6DA012BC4D0012126
:10BA00003046FFF747FFBFE70025BDE7402900208C
:10BA1000AD32002008B5084B93F8A532022B07D0B1
:10BA2000033B012B02D80021FFF734FF002008BDA3
:10BA3000FFF75AFFFAE700BF4029002070B52F4CEE
:10BA400094F8A56205461EB1012E54D0002070BDA9
:10BA5000D4F88832C4F86039D4F88C32C4F8643928
:10BA6000B0F8B4331F2B0DD1D4F88422244B9A4262
:10BA700008D194F89112012904D894F89232013B2C
:10BA80000F2B0AD92021052048F0E6FF022384F875
:10BA9000A4322846FDF756FDD8E748F0F3FF00280A
:10BAA000F7DB94F8A532013B022BCFD9B4F86E191D
:10BAB000E9B1D4F88C3284F86869994228BF1946F4
:10BAC000D4F864395B1AC4F86439042384F8A532C5
:10BAD00040F20113A5F844310A4BC5E95616C5E9F1
:10BAE000543305F5A27128464BF031FDAEE72846E8
:10BAF000FFF7D0FEAAE7FFF7F7FEA7E740290020EF
:10BB00005553424384670020F0B59C0827010E4638
:10BB1000154600EB0414A04206F1100605F11005CD
:10BB200008D103F0030339443A4404EB83039C42F5
:10BB300023D1F0BD84469CED006A16ED045AD0ED89
:10BB4000016A56ED037A90ED027A56ED025A26EE1E
:10BB5000056A66EEA76AD0ED037A05ED046A16ED74
:10BB6000016A45ED036A27EE257A67EE867A103082
:10BB700005ED027A45ED017ACDE7F4EC017AB1ECFE
:10BB8000017A67EE877AE2EC017AD0E74A0901236D
:10BB900001F01F0103FA01F150F82230194214BFDD
:10BBA0000120002070474A09012301F01F0103FA18
:10BBB00001F150F822300B4340F8223070474A0917
:10BBC000012301F01F0103FA01F150F8223023EAAA
:10BBD000010340F82230704730B54D09024400EBB4
:10BBE0008504A2424FF0FF3323D901F01F018B409F
:10BBF00050F825100B4093FAA3F3B3FA83F3DBB2AA
:10BC0000202B02D003EB451030BD211D91420C4684
:10BC100002D34FF0FF30F7E72368043193FAA3F320
:10BC2000B3FA83F3DBB2202BF0D0201A03EBC00071
:10BC3000EAE71846E8E780EA0120082341F22102FA
:10BC400010F4004F4FEA400018BF5040013B80B253
:10BC5000F6D1704738B50C468D18AC4200D138BDCE
:10BC600014F8011BFFF7E7FFF7E74840082310F03F
:10BC7000800F4FEA400018BF80F0D500013BC0B2F2
:10BC8000F5D1704710B50A440C46944200D110BD5E
:10BC900014F8011BFFF7E9FFF7E738B50A46056816
:10BCA00004460020AA4203D36B1C2360287038BDD1
:10BCB00012F8011BFFF7D9FFF4E7DFED0A7AC0EDB8
:10BCC000020A20EE270AB7EE007AC7EE007A0023B8
:10BCD0000360C0ED017A70EEA77A80EEA77A80ED5E
:10BCE000037A7047DB0FC94090ED017AD0ED007AFE
:10BCF000C0ED020A30EE877AC0EE876A30EE677ACE
:10BD0000E6EE877AB0EE670AC0ED007A704701234D
:10BD100003700023C3648364036503644364436561
:10BD2000836283657047DFED157A80ED010AF4EEDA
:10BD3000E70AF1EE10FAC0ED020A80ED031AC0ED39
:10BD4000051A18DDB4EEE70AF1EE10FA10DD81EE07
:10BD5000007AC0EE207AF0EE006A77EE877A86EEFF
:10BD6000A77A80ED047A80ED0F2AC0ED0E2ACEE787
:10BD700000230361F7E700238360FAE7BD378635C8
:10BD8000FDEEC07A17EE903A2033402B43D8DFED1A
:10BD9000237A9FED237AB4EEE70AF1EE10FA28DC5D
:10BDA000DFED207A9FED1E7AB4EEE70AF1EE10FA8D
:10BDB00022D4DFED1D7AB4EEE70AF1EE10FA1EDDB3
:10BDC00030EE670A37EEC00A60EE007ADFED176AE0
:10BDD0009FED177AA7EEA67ADFED166AE7EE876A7F
:10BDE0009FED157AA7EEA67A20EE276AA6EE070A3F
:10BDF000704730EE470ACEE730EE070AD4E79FEDF2
:10BE00000F7AB4EEC70AF1EE10FA44BF30EE270AFB
:10BE100037EE400AD8E79FED0A0A7047DB0F49402A
:10BE2000DB0FC940DB0F49C0DB0FC93F9A7C2E36C0
:10BE3000FAAF4FB93587083CA4AA2ABEDB0FC9BFA9
:10BE400000000000DFED027A30EE270A98E700BF1D
:10BE5000DB0FC93F38B51D46304BB3FBF2F39942B7
:10BE6000B0EE405AF7EE005A4FF000044FD207EE02
:10BE7000901A9FED2B7ADFED2B6AF8EE677A67EE6A
:10BE8000877A07EE102AB8EE477A27EE267AC5EEB3
:10BE9000876A87EEA64AB0EE440AFFF771FFF0EE1C
:10BEA000404AB0EE440AFFF7CDFF35EE055A012DAA
:10BEB00084EE854AF0EE407A1CBF35EEE76AF6EE76
:10BEC000006AB8EE000A34EE257A12BF66EE266AE2
:10BED00027EE806AF0EE656A86EE875AC6EE076A3C
:10BEE00067EE807A75EEC45AC0ED016AC7EE876AC4
:10BEF000C5EE877A80ED005A80ED025AC0ED036AE4
:10BF0000C0ED047A846144610462C46138BDC0ED4F
:10BF1000005A44608460C4600461F3E720A1070014
:10BF2000DB0FC940BD3786359FED010A002391E73D
:10BF3000F304353F2DE9F041FCEEC07A13460A4682
:10BF400017EE901AD0F814808769C669056AB0EEBA
:10BF5000600A89B2FFF77EFFC0F814808761C6616E
:10BF60000562BDE8F081F0EEE06AB0EEC07AF4EE72
:10BF7000C76AF1EE10FAD4BFB0EE476AB0EE666A57
:10BF8000B5EE406AF1EE10FAF0EE405A46D0F4EE0B
:10BF9000C76AF1EE10FA54BFB0EE475AB0EE665AD7
:10BFA000C5EE067A9FED1F6A9FED1F5ADFED1F4A0F
:10BFB000A7EE865A9FED1E6AA5EE276A9FED1D5AD1
:10BFC000A6EE275A9FED1C6AA5EE276A9FED1B5A25
:10BFD000E7EE854AB7EE005AA4EEA75AF1EE467A8C
:10BFE00087EE850AF4EEC76AF1EE10FA48BFDFED7E
:10BFF000147AF5EEC00A48BF37EEC00AF1EE10FA27
:10C0000048BFDFED107AF5EEC05A48BF37EEC00AE0
:10C01000F1EE10FA48BFB1EE400A7047DFED0A7A40
:10C02000C0E700BF39094E3DE3B59EBE69A2163E8A
:10C0300088FA16BE45FE7FBFA7DFA8B499FB243F50
:10C04000DB0FC93FDB0F49400000000044F25063A2
:10C05000984203DDA0F50C40A0387047034B98428E
:10C06000BCBF00F50C40A030704700BFB0B9FFFF67
:10C0700048F69F43984203DDA0F50C40A038704776
:10C080000028BCBF00F50C40A030704791ED005A6D
:10C0900008B5B0EE450AFFF7D5FEF0EE405AB0EE17
:10C0A000450AFFF76DFE91ED015AF0EE404AB0EE01
:10C0B000450AFFF7C7FEF0EE403AB0EE450AFFF73B
:10C0C0005FFE91ED023AB0EE405AB0EE430AFFF740
:10C0D000B9FEB0EE404AB0EE430AFFF751FE25EE3E
:10C0E000806A63EEC07A24EE847AC0ED017AF0EEC5
:10C0F000467AE5EE077A25EE843A64EE806AC0ED72
:10C10000037AF0EE437AE5EE667AA5EE067AE5EE7E
:10C11000436A23EE844A64EEE34A65EEA35A80ED57
:10C12000004A80ED025AC0ED047AC0ED054AC0ED28
:10C13000066A80ED077AC0ED085A08BD034600F193
:10C14000400100221A615A619A61DA611033994202
:10C15000F8D11022002152F019B891ED007AD0EDFB
:10C16000047AE7EE077AC0ED047AD1ED006A91ED2A
:10C17000017AD0ED057AE6EE877AC0ED057AD1ED49
:10C18000006A91ED027AD0ED067AE6EE877AC0ED8C
:10C19000067A91ED007AD0ED077A77EE877AC0EDD6
:10C1A000077AD1ED016A91ED007AD0ED087AE6EEDA
:10C1B000877AC0ED087A91ED017AD0ED097AE7EE41
:10C1C000077AC0ED097AD1ED016A91ED027AD0EDDE
:10C1D0000A7AE6EE877AC0ED0A7A91ED017AD0ED1F
:10C1E0000B7A77EE877AC0ED0B7A91ED007AD1ED7C
:10C1F000026AD0ED0C7AE6EE877AC0ED0C7AD1EDCA
:10C20000026A91ED017AD0ED0D7AE6EE877AC0ED03
:10C210000D7A91ED027AD0ED0E7AE7EE077AC0ED55
:10C220000E7A91ED027AD0ED0F7A77EE877AC0ED33
:10C230000F7A91ED007AD0ED107A77EE877AC0ED23
:10C24000107A91ED017AD0ED117A77EE877AC0ED10
:10C25000117A91ED027AD0ED127A77EE877AB7EE05
:10C26000007AC0ED127AD0ED137A77EE877AC0EDBE
:10C27000137AD1ED017AD1ED006A91ED027A67EE81
:10C28000A77AE6EEA67AE7EE077A90ED007AA6EEB8
:10C29000A77A80ED007AD1ED016A90ED017AA6EEE1
:10C2A000A77A80ED017AD1ED026A90ED027AA6EECE
:10C2B000A77A80ED027A90ED037A77EE277AC0EDC7
:10C2C000037A70472DE9F043034685B000F110076B
:10C2D000054600261C46AC4612E0F8EC016A1EED4D
:10C2E000047AD4ED007AE6EEC77AC4ED007A984578
:10C2F0000EF1100EF1D10434BC420CF1040C03D049
:10C30000A7F11008E646F2E701361C46B646BEF134
:10C31000040F1FD000EB0E1CA84604F1100909E021
:10C32000FCEC016A18ED047AD4ED047AE6EEC77AE3
:10C33000C4ED047ACC4508F11008F1D1D4ED046ABB
:10C3400093ED007AC6EE877A0EF1010EC4ED047A01
:10C350006446DCE7042E03F1140305F1040507F13C
:10C360001007B7D1002300930193029303936C4607
:10C370000023142752F8045B44F8045B07FB030C0A
:10C3800000EB03156E4665451FD10133042BF1D137
:10C3900004AD103100F1400255F8044D0E4600EB9B
:10C3A000031741F8044D1446A742D1ED007A17D186
:10C3B00052ED016A87EEA67A013BA2F1140281EDEB
:10C3C000007AE9D105B0BDE8F083B6EC017A54ED0E
:10C3D000017AF5EC016AE6EEC77A44ED017AD2E71C
:10C3E000F4EC016AB6EC017AE6EEC77AC1ED007AA8
:10C3F000DAE79FED0C7A00F10C03F0EC017AF4EE31
:10C40000677AF1EE10FA06D7F0EEE77AF4EE477AA3
:10C41000F1EE10FA03DC9842EFD1012070470020C2
:10C42000704700BFFFFF7F7F1FB50C46024669467D
:10C430001030FFF747FFDDED007AB6EE007A67EEC9
:10C44000877A2046C4ED007ADDED017A67EE877ABF
:10C45000C4ED017ADDED027A67EE877AC4ED027AE7
:10C46000FFF7C7FF04B010BDB5EEC00AF1EE10FA39
:10C4700008B506DB4DF05CF8B4EE400AF1EE10FAB8
:10C4800001D79FED010A08BD00000000F8B52DEDB1
:10C49000028B044625461C3004F1640250ED017AFB
:10C4A000B1EC010A77EE807A40ED017AFCF754F99D
:10C4B00018309042F2D123692D4E62680133236116
:10C4C000D6F828329B1AA26893422DD99FED298A6B
:10C4D00004F13007EB6A012BC1BF03F1FF3307EE14
:10C4E000903A95ED0A7AF8EEE77AD4BFB0EE480AB2
:10C4F00087EE270AFFF7B8FFBD42D4ED057A16D0C4
:10C50000F4EEC07AF1EE10FA05F11805E2D5237BBE
:10C5100053BBD6F82822626000222361A261E36245
:10C5200022636364A264E365BDEC028BF8BDF4EEA4
:10C53000C07AF1EE10FAEAD4D4ED047AD4ED066AAA
:10C54000F8EE677A022386EEA77AD4ED0C6A84EDC2
:10C55000067A86EEA77AD4ED126A84ED0C7A86EE1E
:10C56000A77A84ED127A00E003232370DCE700BF92
:10C57000402900200000000038B50378012B044654
:10C580003CD10369254D23B9426812B9D5F8282258
:10C590004260D4ED067A77EE807A01332361C4EDF0
:10C5A000067A04F11C00FCF7D7F86268D5F8283247
:10C5B0009B1AA268934221D9E36A012BC3BF03F1FE
:10C5C000FF3307EE903A94ED0A7A9FED150AC4BF47
:10C5D000F8EEE77A87EE270AFFF746FFD4ED057AF3
:10C5E000F4EEC07AF1EE10FA0CD5237B3BB9D5F806
:10C5F0002822626000222361A261E36238BD032326
:10C600002370FBE7D4ED047AD4ED066AF8EE677A7E
:10C61000022386EEA77A84ED067AF1E7402900200E
:10C620000000000008B52DED028BF0EEC08AB0EEE0
:10C63000408AB7EE000A30EE680AFFF715FF9FED5B
:10C640000E7ADFED0E7AE8EE877A9FED0D7AA7EE8F
:10C65000A87ADFED0C7AE7EE287AB5EEC08ABDEC59
:10C66000028BF1EE10FA20EE270A44BFDFED067AC6
:10C6700037EEC00A08BD00BF306E99BC2716983D42
:10C68000843459BEA40DC93FDB0F494060EEA00AB7
:10C69000E0EE000AB0EE600AE6E660EEA00AE0EE28
:10C6A000000AE1EE010AB0EE600ADDE62DE9F74F7F
:10C6B00090469DF83020002A14BF4FF030094FF00B
:10C6C00020090D9A1C1E05460F46BABF644201237D
:10C6D000002312F8011B01B12CB9A24663B100245A
:10C6E0000D9EA41B12E0013CF3E7BD4204D2494673
:10C6F00028460193C047019BBAF1010AF5D2EFE742
:10C70000BD4203D228460193C047019B06EB040BB0
:10C7100016F8011B0029F3D133B15446002C07DC75
:10C72000BAF1000FA8BFD344584603B0BDE8F08F5C
:10C73000BD4202D249462846C047013CEEE70FB44D
:10C7400037B50C4D06ABD5F8081B53F8042BD5F8BC
:10C75000040B019348F088FE0446D5F8B40206F0B5
:10C7600096F80028F9D0204603B0BDE8304004B068
:10C77000704700BF402900200EB403B503AB084941
:10C7800053F8042BCDE9003001A848F06DFE019B61
:10C7900000221A7002B05DF804EB03B0704700BFCE
:10C7A000A78700080CB430B52C4CD4F80C3BA5B0CE
:10C7B0001BB9D4F8103B002B39D094F8143B9942A4
:10C7C00006D9012303FA00F0D4F8183B18422ED002
:10C7D000D4F828124FF47A7304A8B1FBF3F203FBE8
:10C7E00012131F49FFF7C8FF04AB0344289A1D49E1
:10C7F0000393054629AB03A8029348F035FE039B3B
:10C80000591C03910A211970039B0246591CD4F844
:10C810000C0B03910021197090B103681B6A03B1DE
:10C820009847D4F80C5B04AC14F8011B21B925B06F
:10C83000BDE8304002B07047284605F0C3FFF3E77B
:10C84000D4F8103B002BF2D002212A4400910A4474
:10C85000FD2004A926F05CFEE9E700BF4029002086
:10C86000579C06084F87000810B54FF4004086B06B
:10C8700025F098FC044690B34FF4004125F09AFC53
:10C8800002281AD1226848F201039A4227D14FF4B4
:10C89000004047F00DFC10B31F4BD3F81C2B824215
:10C8A0001FD0D3F8F82B904230D0D3F8D42C90423C
:10C8B0002FD00022C3F8102B11E00023022294F99C
:10C8C0000400CDE901234FF4612200924FF40041AE
:10C8D0001A4625F0B9FC104BC3F80C0B28B906B06A
:10C8E00010BD03F61C32C3F8102B0C4B04930C4BF9
:10C8F00003930C4B02930C4B01930C4B00930C4A8B
:10C900000C4B02210020FFF74DFFE8E703F6F83259
:10C91000E9E703F6D442E6E740290020639C0608D5
:10C920006C9C0608759C0608819C0608879C060876
:10C93000C0AB0608B59B0608184A38B5D2F8B04D0A
:10C94000033004EB9003B3F5007F19D802F6B45519
:10C95000C2F8B03D124A02EB810120F00300D1F889
:10C96000BC24C3F500731044C1F8BC040D4A9B00FD
:10C970000421002005EB8404FFF714FF204638BD96
:10C980000021094A0846FFF70DFF084AD2F8943003
:10C9900043F00073C2F894300024EFE740290020F0
:10C9A000383A0020989C0608BC9C0608002B012001
:10C9B0002DE9F04706460068FDF7C3FA0D28054645
:10C9C00008DD1F4A00210520FFF7ECFE0024204669
:10C9D000BDE8F0871B4F07EB80094FEA8008D9F8C4
:10C9E000C8A2BAF1000F1CD107216420FFF7A4FFF1
:10C9F0000446C9F8C80228B90146134A0520FFF7C2
:10CA0000D1FEE4E76422514651F0C0FB0F48D9F84B
:10CA1000C8322DB200EBC505C3E90053DB615B638F
:10CA2000DB6447447179D7F8C842182000FB014302
:10CA300000221C46C3E903229E601A750434C6E72F
:10CA4000CA9C060840290020EF9C060824F205082D
:10CA50002DE9F043062592F9007087B06B43144628
:10CA600012F80580A0EB080EA0EB070CBEF1000F3A
:10CA7000B8BFCEF1000EBCF1000FB8BFCCF1000C76
:10CA8000E64502EB050905F10605BCBF4FFA88F73C
:10CA90004C46AB421646E3D11A443378BB420CD124
:10CAA000658873884D1BCB1A002DB8BF6D42002BD3
:10CAB000B8BF5B429D42C8BF34460636B242ECD195
:10CAC0006379049323790393638802932378064A56
:10CAD000CDE90013034603210120FFF763FE204642
:10CAE00007B0BDE8F08300BF099D06084B1EDBB20E
:10CAF000062B98BF1E4AF0B598BF9B181D4C98BFD7
:10CB000093F8DE2004F1580388BF4FF480720028A8
:10CB100008BF1C46234687B013F9087B1888C8B99C
:10CB2000154B93F84405A3790593A3880493A37840
:10CB3000039323880091CDE90123104A104B032170
:10CB4000002808BF13460F4A0120FFF72BFE20469E
:10CB500007B0F0BD161AD51B002EB8BF7642002DC7
:10CB6000B8BF6D42AE42BCBF1C4647B20833D5E7E2
:10CB7000CCF10508300F0020383A0020C5EA06083D
:10CB800017B00608429D060803685A1C0260197017
:10CB90000368090A5A1C02601970704703685A1C1E
:10CBA0000260197003685A1C02600A0A1A7003684E
:10CBB0005A1C02600A0C1A700368090E5A1C0260A3
:10CBC0001970704703685A1C02600A0A1A700368D9
:10CBD0005A1C02601970704738B504460068154643
:10CBE00051F0D4FA23682B44236038BD38B504468D
:10CBF000006815464FF02AF923682B44236038BD9E
:10CC000003685A1C02601878704703685A1C026057
:10CC10001A4612F8021B0260587841EA0020704759
:10CC200010B502681146531C036011F8024B0160F5
:10CC3000D31C5178036093781B0443EA0123111D30
:10CC40000160D078234343EA006010BDD1E900328F
:10CC50009A4206D05A1C0A6008B11B780370012062
:10CC6000704700207047D1E900239B1A012B10B5B3
:10CC70000446084604DDFFF7C8FF2080012010BDF0
:10CC80000020FCE730B50A440446914201D100205F
:10CC900011E014F8013BA3F14100192811F8010B30
:10CCA000A0F1410598BF2033192D98BF20301B1AE1
:10CCB00002D10028E9D130BD1846FCE76FF00042F0
:10CCC000E0E710B50288C378A2F5FA62910840F255
:10CCD000B554013B04FB013381780C24013902F087
:10CCE000030204FB02120D49847901EB4202182170
:10CCF000B2F8E6201344027901FB0322437900894C
:10CD00003C2101FB0233064A224401FB03224FF47B
:10CD10007A730021C2FB030110BD00BFCCF10508EE
:10CD200080436D382DE9F04190461F4605464FF48B
:10CD30007A720023404639464BF08CFC284B3C214C
:10CD4000034493FBF1F201FB1233AB7192FBF1F35D
:10CD500001FB13226A7140F2B551182293FBF2F4E1
:10CD600002FB143394FBF1F201FB1244B4F5896F1A
:10CD70002B714FEA82032EDA40F2DA2294422CDC45
:10CD8000B4F5B77FB4BF00210121164A182000FB7B
:10CD900001220B2632F81600A04201DD013EF9D136
:10CDA00003F5FA630B442B80731CAB700C2303FB5D
:10CDB00001660D4B03EB46060134B6F8E630E41A83
:10CDC000EC704FF47A720023404639464BF042FC37
:10CDD0002A81BDE8F0810321D7E70221D5E700BF12
:10CDE00080BC92C7B2F20508CCF10508F0B5274D1A
:10CDF00006460F460FCD8DB06C460FC40FCD0FC445
:10CE000095E80F0084E80F0016F003033AD164217F
:10CE100096FBF1F201FB126242B94FF4C87296FB25
:10CE2000F2F302FB1363003B18BF0123721EC3F130
:10CE30001D03002A019340F26D13104606FB03F315
:10CE4000B8BFB01C03EBA0006FF0630392FBF3F3D9
:10CE500018444FF4C87392FBF3F21044063069464D
:10CE600000240725013F51F8042BA74202EB0003E1
:10CE700093FBF5F0C0EBC000A3EB000004D1101A47
:10CE80000DB0F0BD0123D1E70134ECE714F3050840
:10CE9000084B53E9021251EA020309D0064BD3F8BA
:10CEA00028325B1842F10002C0E9003201207047CD
:10CEB00000207047883F00204029002037B50546F4
:10CEC0006846FFF7E5FF044638B1DDE90023284650
:10CED000FFF728FF204603B030BD40F20113288041
:10CEE0006B80A880A8712881F4E71FB50190FFF737
:10CEF000E5FF0199044648B1064B0DF10E02B3F867
:10CF00005035ADF80E30084645F08AF8204604B09A
:10CF100010BD00BF383A0020F0B50124B0FBF4F595
:10CF20008D4203D200261CB91C70F0BD4C43F5E7BE
:10CF3000B0FBF4F5B4FBF1F704FB15002EB9002D9E
:10CF400003DC8C420CD33C46EDE7092D08DD002ABA
:10CF500014BF372457242C4403F8014B0136F2E761
:10CF60003024F8E7A0F13003DAB2092A01D81846D4
:10CF70007047A0F16103052B01D857387047A0F125
:10CF80004103052B94BF37384FF0FF30704770B521
:10CF90000446944208461546B4FBF2F602D33046E6
:10CFA000FFF7F5FF05FB1644024B1B5D00F8013B44
:10CFB00070BD00BF8C9D0608B5EEC00ADFED2D7A6E
:10CFC000F1EE10FACCBF30EE270A30EE670ADFED43
:10CFD0002A7A20EE270A30B5FDEEC07A87B017EE28
:10CFE000904A054684EAE470002303A9A0EBE470AC
:10CFF000CDE90033029348F08BFB002CACBF20231B
:10D000002D2303A88DF800304AF0FCFC012822D122
:10D0100030238DF801308DF802308DF8033003A9EC
:10D02000684652F003F868464AF0ECFC0338C4B294
:10D030002246694628464EF009FF00232B550F492A
:10D04000284651F0F3FF0DEB0401284651F0EEFFA6
:10D05000284607B030BD022805D130238DF80130B5
:10D060008DF80230DBE7032804BF30238DF8013050
:10D07000D5E700BF6F12033A00007A44C8CF060814
:10D0800030B50278202A034600F10100F9D0092AC0
:10D09000F7D02D2A4BD10346BFEE000A9FED3C7A14
:10D0A0001A46F2EE046A134612F8010BA0F13001A1
:10D0B000CCB2092C41D92E280BD1F2EE046A1146CC
:10D0C000B0EE666A0B4611F8012B303AD0B209284F
:10D0D0003CD91A7802F0DF02452A53D15A782D2A1A
:10D0E0003FD102330120013B00220A2513F8011F22
:10D0F0003039CCB2092C3AD9B2F59A7F1346DFED1C
:10D10000256A28BF4FF49A731A46F7EE007A072A69
:10D1100030D8DA086FF0070101FB0233F2EE046A3F
:10D1200063BB88B3C7EE276A20EE260A30BD2B2AE0
:10D1300008BF0346B7EE000AB0E707EE901AF8EE14
:10D14000E77AE7EE267AB0EE677AACE707EE902A48
:10D15000F8EEE77AC7EEA65A66EE866A37EE257ACB
:10D16000B0E72B2A14BF013302330020BBE705FBD5
:10D170000212BBE767EEA67A083AC8E767EEA67A1E
:10D18000013BCDE7F7EE007A67EE276ACCE700BFF8
:10D190000000000020BCBE4C70B5034610F8012B07
:10D1A000202AFAD0092AF8D02D2A0ABF03460125E1
:10D1B0004FF0FF35591E00240A2611F8010FFFF722
:10D1C000D1FE092802D905FB04F070BD06FB04045A
:10D1D000F3E72DE9F04F2DED028B8FB032F0B4FA6A
:10D1E00032F08CFA4FF00008DFF8389306464446D8
:10D1F00047464546BE4200F3AA80642C40F0548165
:10D200006825DFF8F482B94BD8F84C71C3F8E87F91
:10D210004C22554308EB05030021184650F0B6FF99
:10D220004C22002150F0B2FFB14A48F805200122FB
:10D23000C0E90466C0E907778260AE4A826247624D
:10D240000534AA4BAC4DD3F8E87F7300B3F1805F8F
:10D2500018DA4C2254432B190021184650F096FF3F
:10D260004C22002150F092FFA44A2A51022242711E
:10D27000C6F1006601229640C0E90466C0E907775E
:10D28000826047629E499C484FF498724EF0DEFDE2
:10D29000994A042113460139C3E907775F6203F114
:10D2A0004C03F8D1AC68002C4CD12B79002B49D021
:10D2B0002B68002B46D0C5E911118F482964E9631A
:10D2C0000F468C46C66C00F14C03002E40F02C81BA
:10D2D00002231068002840F057818A4E981E8A4B1E
:10D2E000C6F8343A3E23C6F8383A3F23C6F83C3AEB
:10D2F0004023C6F8403AC6F8501AC6F85C4AC6F849
:10D300004C0A830F8100002800F06B8140F2FF126D
:10D310008A1843F10003520A42EAC35202F1400361
:10D32000C6F8443A1344C6F8483A784AC6F8545AFC
:10D3300003EBC003D90DC6F8303A5B0242E9023173
:10D34000C6F8585A0FB0BDEC028BBDE8F08F202212
:10D3500006A9384632F0B8F96D49122206A850F0F5
:10D36000AFFE0090002840F08D80AF421DD069498B
:10D370000C20621C00FB0414CA4667490192204637
:10D38000FFF7FAF901214AF84C4BC9E9021559494E
:10D39000C9F82810019AD9F81C10A7EB050BC9E9A8
:10D3A00004BBC9E908111446D146504BD3F8E82F05
:10D3B000C9F81C203D46122202F13803501C0DEB27
:10D3C0000302564B12F8201C18F8032091425CD13E
:10D3D00008F10108B8F1150F59D1202206A92844F7
:10D3E00032F072F9002505AA4D4906A84FF03EFD1E
:10D3F00005AACDE9025508EE102A0195AA46AB46CA
:10D4000038B30BF1FF32042A04D8DFE802F00F131F
:10D41000171B1F00FFF7C0FE824618EE102A404976
:10D4200000200BF1010B4FF021FDE9E7FFF7B4FEFF
:10D430000190F2E7FFF7B0FE0290EEE7FFF7ACFED7
:10D440000390EAE7FFF7A8FE0546E6E7FFF7A4FE2C
:10D450000090BAF1000F12D0DDE90123AAF2BC7AE4
:10D4600043EA4210039B40EA4A2A680140EAC3208B
:10D47000009B40EA630040EA0A40C9F81C00642CA3
:10D480002ED03D4607F50067B4E64FF0000820288F
:10D4900008D12035AE42F2DB024606A9284632F01A
:10D4A00013F90020024687E7AF4219D0194A1A49FA
:10D4B000A7EB05080C2707FB042701342246384652
:10D4C000FFF75AF90122C9E902250A4AC9F82820BA
:10D4D000D9F81C20C9F80070C9E90488C9E90822F4
:10D4E000251D002C7FF48DAE0424AAE60000002048
:10D4F000ED9D0608159D00080C480020FA9D0608C1
:10D5000044F3050848180020079E060878220020EA
:10D51000B19D06088C3F0020C49D0608D29D0608D8
:10D52000E89D06083C4900209E68C3F840C007F10A
:10D53000FF3E7645C3E911CCC3F83CC005D1002FAE
:10D540003FF400AF53F80C0C374607F1010E764557
:10D5500008D10679002E3FF4F5AE4364186477468F
:10D560001846AFE6BE427FF4EDAE002E3FF4EAAEC1
:10D57000D0F840E0DEF83C700137CEF83C70C3F8DC
:10D5800040E08364B646EAE7107903F1FF3CA0B1BE
:10D590001363D36B5B011ABF03F6FF731B0B0123ED
:10D5A0006344C2E90466C2E90D33D2E90D03181AD7
:10D5B0000144013301344C328BE61769136367B1C0
:10D5C00007F6FF773F0B50696744576338B100F6A1
:10D5D000FF70000B60449063E7E70127F3E7012049
:10D5E000F8E701229AE610B50023802804D8934278
:10D5F0000AD2C854581C10BD934205D060F07F0475
:10D60000CC54C0090133F0E74FF0FF30F3E770B5B9
:10D610001249134C134E01220020FEF71BFB2288F7
:10D6200062B1A31DB34217D2A518B54214D2052A80
:10D6300012D92146FEF70EFB2C46F0E721460222C6
:10D64000FEF708FB63880849084AC31A641A58425F
:10D65000A2F8044A584170BD0020FCE700400008D1
:10D660000140000800800008FC3F0008383A002014
:10D670002DE9F04F794BDFF8F4818FB0A3EB08026E
:10D68000CDE901234FF00309102200210AA850F030
:10D690007DFD019B0993029B0893714BCDF81C8083
:10D6A0001A69002ABFBF6F4A5A6002F188325A6075
:10D6B0000124F322DA604FF0000A7E23224604A9F7
:10D6C00007A88DF83440CDF830A08DF81030FBF766
:10D6D0004BFB504513DA0023B9F1010900F0B78084
:10D6E000002BD1D098F800307E2B40F0B380FFF7AC
:10D6F0008EFF002800F0AE800FB0BDE8F08F22460C
:10D7000004A95046FEF7A6FA574CDFF864B1ADF80D
:10D7100012005C453CD30024022205A907A8ADF8FD
:10D720001440FBF721FBA042D5DBBDF8120002221A
:10D7300005A9FEF78FFA0222ADF812000DF11201D1
:10D7400007A8FBF711FBA042C5DB0B9888B1079B2C
:10D75000089A03449342BED80AABC0F104022146A2
:10D76000184450F013FD0AA907A8FBF759FACDE9B0
:10D770000B400C9B002BAEDB9DF8342022B13849C6
:10D780000A6942F000420A61B3FA83F35B09A3E736
:10D7900062888DF819A0C2F30B06B31DADF81430E2
:10D7A0002388C3F30B011B0B8DF818301304ADF85D
:10D7B000161020D4062205A907A8FBF7D5FA0028E1
:10D7C00089DBBDF81200062205A9FEF743FA61685D
:10D7D000ADF81200324607A8FBF7C6FA0028FFF69C
:10D7E0007AAFBDF8120061683246FEF733FAADF841
:10D7F000120014348DE700273D460135EDB20622B4
:10D8000005A907A88DF81950FBF7AEFA0028FFF616
:10D8100062AFBDF81200062205A9FEF71BFA616887
:10D82000ADF812003944324607A80391FBF79CFA81
:10D830000028FFF650AFBDF8120003993246FEF7FC
