:020000040800F2
:1000000000000220453C05084D9E0008F129020829
:10001000F53C0508F53C0508F53C05080000000026
:1000200000000000000000000000000081B2000895
:1000300083B200080000000085B200089525010881
:10004000F53C0508F53C0508F53C0508F53C0508B8
:10005000F53C0508F53C0508590401085D04010854
:10006000F53C0508610401086504010841A2000887
:1000700055A2000869A200087DA2000891A200080C
:10008000A5A20008B9A20008F53C05080000000080
:1000900000000000000000000000000069040108EA
:1000A00079A10008A1A10008C9A1000865A1000864
:1000B000F1A1000805A2000819A20008F53C0508F6
:1000C000F53C0508F53C0508F53C0508F53C050838
:1000D000F53C0508919F00089D9F00080000000066
:1000E0006D040108F53C050887B200080000000017
:1000F000000000000000000000000000CDA2000889
:1001000000000000F53C05082DA20008F53C05089C
:1001100000000000000000000000000000000000DF
:10012000E1A20008F5A2000809A300081DA3000829
:1001300031A30008000000000000000000000000E3
:10014000000000000000000000000000D9B200081C
:1001500045A3000859A300086DA30008F53C050855
:10016000F53C0508F53C0508000000000000000013
:10017000000000000000000000000000000000007F
:1001800000000000F53C0508000000000000000031
:08019000F53C0508F53C0508EB
:08019800D8370500010000004A
:1001A0002020012002010000030014004020012053
:1001B0000207000001001400602001200208000076
:1001C0000800140080200120010B000000007700CF
:1001D000A0200120010C000000007600C0200120BA
:1001E0000110000000007600E0200120010D010058
:1001F00000007700002101200112000000007600BD
:10020000202101200114000000001E0040210120D7
:10021000011A000000000D006021012001160000FD
:1002200000000C0080210120011B000000000E00D6
:10023000A0210120011C000000001E00C02101209F
:100240000117000000000C00E0210120011800004F
:1002500000000E00002201200119000000000C0027
:10026000202201200229010000012C00402201204F
:100270000230000000012200602201200132000053
:1002800000003C0080220120013500000000200019
:10800000D0E907239A422FBFD01AC0688018C01A3F
:108010007047D0E9092300699A4238BF1218D31A71
:108020000138C01A7047D0E90902131A5842584162
:108030007047036A41690246C85CD16801338B42CC
:1080400028BF002313627047436A8269D154436A90
:1080500002690133934228BF0023426B4362D36815
:1080600043F08003D3607047436B188810F0100012
:108070001EBF1A889B8801207047436B99891A8814
:10808000890610B592B2044607D5900605D5E26A76
:1080900022B39888216B80B29047636B99891A88C4
:1080A000090692B20FD510060DD5D4E909128A42FD
:1080B00022D0A169895C998021690132B2FBF1F07B
:1080C00001FB1022A262998A1A88C90592B204D5CE
:1080D000D20744BF4FF6F7721A8010BD9B88E26941
:1080E0006169DBB28B54E369E2680133B3FBF2F1FF
:1080F00002FB1133E361D0E7DA6822F08002DA6034
:10810000E1E7036941681F2B30B54FF0200285BFBE
:10811000A3F120054C680C68AA4098BF9A402242FF
:108120001ED0826900201074D0688468206820F016
:10813000010020605468206865790A4C828934F80F
:10814000154092B21F2B22EA0402828188BF203B95
:108150004FF020028BBF9A4002FA03F3CA608B6093
:1081600030BD00BFD87705080E4BDA68D20310D4B3
:10817000DA68D1060FD4DA68D2050ED4DA6812F0C4
:10818000E00F0CD1DB6813F0020F14BF08200920A8
:108190007047012070470620704702207047072073
:1081A000704700BF003C024007B509238DF8073037
:1081B000FFF7DAFF8DF807009DF80730012BF7D0A5
:1081C0009DF8070003B05DF804FB838A028B9BB225
:1081D00043EA024331EA03030CBF01200020704749
:1081E00082B0002301930093012300900193019B2F
:1081F00063B1009A21F07F4314320092009A126812
:108200001A4214BF0120002002B07047009A1832B1
:10821000F3E77047704701207047044BD3E9000330
:10822000984288BF03F50063181A7047F8150020BC
:10823000054AD2E900318B42FDD0D1180133C3F396
:108240000A03087A13607047F8150020044BD3F82E
:10825000080820B1D3F80808431F58425841704716
:10826000F8150020012380F84930704710B5D0F888
:10827000E83504461B699847032384F8123100202F
:1082800010BD08B590F8123180F81331042380F83E
:108290001231D0F8E835DB689847002008BD08B5F2
:1082A000D0F8E435DB6903B19847002008BD08B574
:1082B000D0F8E4351B6A9847002008BD08B5D0F80F
:1082C000E4355B6A9847002008BD30B501380024CA
:1082D00023460134055D002DFAD1DBB201335B008A
:1082E00013800B7003234B70022310F8014F04B965
:1082F00030BD5A1CD2B2CC5402338D54DBB2F4E7F9
:1083000010B5074C2068FF2808D00649D1F80C2882
:1083100001F5016100F070F8FF232360002010BD1B
:1083200000000020F8150020432301480B8070470F
:1083300004000020122301480B80704747000020F2
:10834000042301480B8070475900002008B50A46F5
:1083500002490348FFF7B9FF084608BD101E002078
:10836000A814060808B50A4602490348FFF7ADFFFE
:10837000084608BD101E0020BC14060808B50A46B1
:1083800002490348FFF7A1FF084608BD101E002060
:10839000C114060808B50A4602490348FFF795FFCD
:1083A000084608BD101E0020CB14060808B50A4672
:1083B00002490348FFF789FF084608BD101E002048
:1083C000D61406087047704770477047704770476B
:1083D000044B00200522C3F80828C3F81809C3F885
:1083E0001C097047F8150020024B0020C3F808084C
:1083F000704700BFF8150020212838B50C461BD067
:1084000022282BD0202815D1A1B1072A12D11A4D2C
:10841000D5F81C3913B10968002098472368C5F8BE
:108420002039237985F82439637985F82539A379AA
:1084300085F82639002038BD0029FBD0072AF9D15C
:108440000D4BD3F820290A6093F824290A7193F878
:1084500025294A7193F826398B71EBE70029E9D079
:10846000022AE7D1044BD3F81839002BE2D009884F
:1084700000209847DEE700BFF8150020074AD2F831
:108480002839D2F82C29934203F1FF338CBF002006
:1084900001209B1A03EBC020704700BFF815002095
:1084A000ECE730B50F4CD4E900239A4286BF03F5C0
:1084B0000065AA1A9A1A0A44B2F5006F10D801444E
:1084C0000022814203D102B16360002030BDE21876
:1084D00010F8015B15720133C3F30A030122F0E7C0
:1084E0000220F3E7F8150020202301480B80704795
:1084F0005D000020122301480B8070477D000020A2
:10850000042301480B8070478F0000200A4608B5FD
:10851000044920B90448FFF7D8FE024808BD0348C3
:10852000F9E700BF281F0020E4140608FC14060821
:1085300008B50A4602490348FFF7C7FE084608BDCA
:10854000281F00201415060808B50A4602490348EA
:10855000FFF7BBFE084608BD281F002027150608A8
:1085600008B50A4602490348FFF7AFFE084608BDB2
:10857000281F002032150608002370B54D1C1E462A
:10858000040FB0F1204F34BF3034373401F81340BA
:1085900005F813600133DCB2A2424FEA0010EFD8B5
:1085A00070BD1A2310B50B80094BD3F8E807D3F838
:1085B000EC2780180AD0D3F8EA4706490822FFF7CB
:1085C000DBFF042210312046FFF7D6FF024810BD22
:1085D00000F0FF1F95000020930000204FF400736F
:1085E0001360034BD3F8383A0B600020704700BF8C
:1085F000F8150020002070470120704701207047C7
:108600000020704730B414461A69A24209D30D19EC
:10861000AA429B6938BF111B0A46E11830BC4EF0D4
:1086200005BE30BC704770477047D0ED007AD0ED82
:10863000036A30EE677AE6EE877AB0EE670AC0ED3D
:10864000007A7047D0ED017AF5EE407AF1EE10FA3B
:1086500009D1DFED0F7A60EEA70AB7EE007AC7EE18
:10866000207AC0ED017AD0ED017A80ED021A71EE28
:10867000277AC1EE276AD0ED007AC0ED036A30EEAA
:10868000677AE6EE877AB0EE670AC0ED007A704747
:10869000DB0FC940D0ED017AD0ED036A30EE670AF6
:1086A000E6EE807A90ED000AC0ED017AB0EE677ACE
:1086B000D0ED027A37EE677AE6EE877AC0ED027A7D
:1086C00077EEC07AA6EEA70A80ED000A704790ED1B
:1086D000056AD0ED017AD0ED006AD0ED025A90ED36
:1086E000045A66EE277AB0EE407AE6EE807AD0ED54
:1086F000066A80ED057AE5EEA67AD0ED076AD0ED40
:10870000035A80ED066AE5EEE67AD0ED085AC0ED30
:10871000086AE5EE657AB0EE670AC0ED077A704741
:10872000D0ED006AD0ED057AE6EE807AB0EE407AC0
:10873000B0EE670AD0ED037AD0ED016A67EEC07A39
:10874000E6EE877AD0ED066A76EEA77AD0ED026A79
:10875000C0ED057AD0ED047A67EEC07AE6EE877A4E
:10876000C0ED067A704703685A1C026019707047A2
:1087700003690133012B036106D1002380ED010A57
:1087800080ED000A8360704790ED006A07EE903A32
:1087900070EE466AF8EEE77A86EEA77A77EE067A0A
:1087A00090ED027AC0ED017A30EE670AC0ED007AF2
:1087B000A6EE807A80ED037A80ED027A7047036836
:1087C0005A1C026019707047007970470079C0F335
:1087D0004010704700794009704790F830200346F8
:1087E00002F0FF0012B1002283F8302070474FF4EE
:1087F0008053838170474FF40063838170474FF447
:1088000000638381704710B5054A0423002152F8A4
:10881000044B844208BF42F8041C013BF7D110BD51
:10882000602000203548F0B5B0F8863AB0F8785AA4
:10883000B0F9904AB0F97E6AB0F98ACAB0F9987A6C
:10884000ED1AB0F8843A6B43B0F98E5A04EBE33476
:10885000ED0295FBF4F505EBE335A5F57A6E0EFB1D
:108860000EF42313B0F9804AC0F8945A0EFB06F6B2
:108870000EFB04FEB0F9884A5C4303FB0CFCF612C5
:10888000241406EBEC2C04EB6E34B0F97C6AB0F8DF
:10889000823A02340CEB860CA410D0F89C6A04F5E2
:1088A00000440CFA07FC63430CF1020C4CF250300C
:1088B000DC0BA6EBAC0640FA07F3734355BF5B0035
:1088C000B3FBF4F3B3FBF4F35B0071B1181240F6A1
:1088D000DE34404360430A4C00145C4300EB244008
:1088E00000F6CF6003EB20130B6022B10A235D4337
:1088F00008352D1115600120F0BD00BFF8150020CE
:1089000043E3FFFF01207047012070472DE9F84342
:10891000604F1546D7F8A04AB7F8A42AB7F8AA9A24
:10892000C2EB24135200C2EBE402B7F9A64A624339
:1089300003FB03F4B7F9A83A24135C43A41304EB34
:10894000E224B7F9AE3AC7F8BC4A0E46A4F5FA31AC
:1089500081FB01CE4FEAE37803FB0EF20CFB082209
:10896000A3FB0C389044B7F9AC2A82FB01021B0A26
:10897000120343EA086342EA105200031B1842EB59
:10898000282202F50042A3FB093809FB02884FEABE
:10899000E8734FEA680253EA68084FF000006DD0B0
:1089A000B7F9B49A4FEAE97809FB0EFE0CFB08EE22
:1089B000A9FB0C9CE644B7F9B2CA8CFB01814FEAD3
:1089C000414C4FEA484111EB0909D7F8C01A4CEA6B
:1089D000D83C4EEB0C0CC1F5801E0EF00048B7F9E8
:1089E000B01A48EA5E0810EB09004FEACE7EBEEBF3
:1089F00000000CEBC10168EB010C40F63548A0FB10
:108A0000080108FB0C114AF037FFB7F9BA3A4FEAF0
:108A1000613E4FEA503C4CEAC14C03FB0EF24FEA78
:108A2000E3790CFB0929A3FB0C324A4403FB0EFE3D
:108A30000CFB02EEA3FB0C3CB7F9B82AE6445B0E34
:108A400043EACE1313EB000C804602FB01F34FEA1E
:108A5000E27941EB6E6EA2FB082809FB003141442C
:108A6000D00C40EA41301CEB0000B7F9B63A4EEBAF
:108A7000E141000A40EA016000EB03100EB1000A78
:108A8000306025B104EB8404803424122C60012072
:108A9000BDE8F883F815002031B10A4BD3ED067A12
:108AA000FDEEE77AC1ED007A52B1064B9FED067AF2
:108AB000D3ED077A67EE877AFDEEE77AC2ED007AAA
:108AC00001207047BC2000200000C8422DE9F74F6C
:108AD000CDE90012554AB2F8F23AD2F8E41AB2F8E7
:108AE000EE6AB2F8F47A1B02C91AB2F8F03A6EEBE9
:108AF0000E0EA3FB010403FB0E44B2F8EC3AC009CE
:108B000040EA44601B04C018A6FB013506FB0E5565
:108B1000B2F8EA6A4FEA132343EA05634FEAC6361E
:108B20004FEAE41444F100049B19A7FB012607FB5C
:108B30000E664FEAD25242EA46224FEA252545F117
:108B40000005F61512F5FA6C46F1000BBCF5FA6F4C
:108B50007BF100074CDAA2FB02784FF0050A02FB1A
:108B600006F908EB4909A7FB0A780AFB09884FEACE
:108B7000570949EAC879BF08B0EB090047EA887786
:108B800064EB6804DB1B2A4F65EBA805BC454FF07E
:108B9000FF377BEB070720DA40F6AC57D21946F1D6
:108BA00000065643A2FB027202EB46064FEAC608D5
:108BB000FA00BA1A48EA577866EB0808101844EB2E
:108BC00008044FF00B08A7FB087208FB06267F0875
:108BD00047EAC677DB1B65EB660501FB0EFEA1FBD2
:108BE000011202EB4E0EC90F41EA4E01BCEB010C23
:108BF000009A9AB10D4AD2F8F81AA1FB032301FB9F
:108C00000535520D42EAC522121A4FEA6555009BFE
:108C100065EB0404D20B42EA44421A60019B0BB19B
:108C2000C3F800C0012003B0BDE8F08FF8150020A4
:108C300024FAFFFF01207047054B0022C3F8FC2AED
:108C4000C3F8002BC3F8042BC3F8082B012070478E
:108C5000F81500200A4BD3F80C2BD3F8081B521A36
:108C6000FA2A9FBFD3F8FC2AC286D3F8002BD3F888
:108C7000043B9DBF0287438701200020704700BF4F
:108C8000F81500202DE9F041476906468846002F77
:108C900059D10368C3F30D0515B3D8F800803568C2
:108CA000FFF782FA092840F08780454C236923F4B6
:108CB00040732361236943F400732361236943F004
:108CC00001032361C5F80080FFF76EFA23690928C4
:108CD00023F0010323616FD133680433336032E042
:108CE000384A934229D302F58042934224D302F5B5
:108CF000804293422AD3344A934229D902F58032E2
:108D0000934227D902F50032934225D902F5003269
:108D1000934223D902F50032934221D902F5003261
:108D200093421FD902F5802293421DD9B3F1016FFE
:108D30001CD3052009F0B8FD0825FFF735FA0928EE
:108D400016D04FF0FF373846BDE8F0811025F4E724
:108D50001825F2E72025F0E72825EEE73025ECE797
:108D60003825EAE74025E8E74825E6E75825E4E71F
:108D7000134C236923F440732361236943F4007384
:108D80002361236923F0F803236123691D4345F020
:108D900002052561236943F480332361FFF704FA58
:108DA000236923F0020323612369092823F0F803D0
:108DB00023613FF472AFC4E76FF00107C3E700BF60
:108DC000003C024000400008FFFF000803682DE956
:108DD000F04104464068134483421AD80D468E1869
:108DE00004F10C074FF00008B54202D16069BDE8FC
:108DF000F08123695A1C2261234415F8011B197361
:108E0000042AF1D139462046FFF73CFFC4E904802B
:108E1000EAE74FF0FF30EAE738B514460D4600297F
:108E20004BD0394B9FED396AD3F8102B07EE902ABF
:108E3000F8EEE77AB3F9282BC7EE866A03F62C33EF
:108E400007EE902A33F9082C07EE102AF8EEE77A9D
:108E500053F8102CB8EEC77AA6EEA77A07EE902A40
:108E600053F8142CF8EEE77AE6EE877A07EE102A2C
:108E700033F9062CB8EEC70AA6EEA70A07EE902A29
:108E800033F90A2C07EE102AF8EEE77A33F90C2CA6
:108E9000B8EEC77AA6EEA77A07EE902AF8EEE77A40
:108EA000E6EE877A93ED007AB8EEC77AC7EE066AE7
:108EB000A6EEA70A4BF09AFA28601CB3124BDFED1E
:108EC000136AB3F9142B07EE102AD3F82C2BB3F93D
:108ED000163B07EE902AF8EEE77AB8EEC77A87EEEF
:108EE000A60A07EE903AF8EEE77AF6EE006A60EE30
:108EF000277A9FED070AE7EE267A27EE800A4BF0E5
:108F000075FA2060012038BDF81500200000F04AF5
:108F10000000C8422DE9F347038A8689B6B20546A8
:108F20000C461E404FF0004901F14C0701F1340896
:108F300016B902B0BDE8F087B6FA86F329FA03F253
:108F4000D24391B2298216401B3B002C40D0042B07
:108F5000EED8DFE803F039342E280300E368D5F8B3
:108F60002CA02BB19B681BB11FFA8AF1201D9847DA
:108F7000636A33B19B6823B11FFA8AF104F11C00C4
:108F80009847E36B2BB19B681BB11FFA8AF14046EF
:108F90009847636D002BCBD09B68002BC8D01FFA7D
:108FA0008AF1384603E0E368696B5B68201D9847E7
:108FB000BEE7636AA96B5B6804F11C00F7E7E36B2B
:108FC000E96B5B684046F2E7636D296C5B68E8E734
:108FD000042B06D8DFE803F00D0B09070300EB6A4A
:108FE0000193019BA4E76B6BFAE7AB6BF8E7EB6BC4
:108FF000F6E72B6CF4E790F84820531C0244DBB2F0
:1090000080F8483082F8341090F849200AB1132BC8
:1090100001D949F0C7BB7047002280F8492049F0C8
:10902000C1BB70B50F4E96F8303B002BFBD1044608
:109030004518AC4201D1002070BDD6F82C3914F887
:10904000011BF2180133C3F30A0382F8311BC6F87F
:109050002C39FFF713FA0028EBD1012009F035FB7A
:10906000F7E700BFF815002038B50C461146FFF7AA
:10907000EDF848B1054D002AD5F80C3B04DD20463B
:10908000FFF7CFFFD5F80C3B38BD00BFF815002027
:10909000F0B590F8CF5590F8CE1590F8D12590F80E
:1090A000D03590F8CC7590F8CDC501EB05218DB287
:1090B00003EB022390F8D31590F8D22585B002EB8C
:1090C000012207F01F06012192B29BB28E42044694
:1090D0008DF808708DF809C0ADF80A50ADF80C3065
:1090E000ADF80E20C0F8402180F8111100F00C817D
:1090F000022E00F01D81002E40F09B81BCF1090F73
:109100005ED8DFE81CF0B600F4005D00C8005D002A
:1091100057000A005D00A90076002E0A022EADF865
:1091200006200BD0032E25D0012E49D1D0F8EC35E6
:109130001B68A0780DF10601984709E0D0F8E435E6
:1091400080789B6A0DF1060198474670C4F8F005D7
:10915000BDF80620002A47D0BDF80E30002B43D0C2
:109160009A4228BF1A46ADF806200146204648F02C
:1091700035FE39E0E9B2052922D8DFE801F003071E
:109180000B0F1317D0F8EC355B68D2E7D0F8EC354D
:109190009B68CEE7D0F8EC35DB68CAE7D0F8EC3551
:1091A0001B69C6E7D0F8EC355B69C2E7D0F8EC354F
:1091B0009B69BEE71A4303D190F81231032B03D108
:1091C000204648F037FD0FE0016905F07F0680F882
:1091D00014610B6865F30A121A430A6048F012FE24
:1091E0002EB1022384F81231002005B0F0BD012316
:1091F000F8E7E9B2904D012985F83912E0D890F8E6
:109200001231022B0FD0032BDAD1C1B9022380F81F
:109210001231D0F8E43580F810115B689847204689
:1092200048F0F0FDE0E70029F9D00121032380F8A0
:10923000101180F81231204648F0BEFCEFE790F89C
:1092400010110129EBD0D0F8E4355B68984795F808
:10925000391284F81011EEE7012AB1D190F81231D9
:10926000022B04D0032BABD100F588717EE7734944
:109270007CE790F81231023B012BA1D86E4B002203
:10928000C3F84022D0F8182112B10222C3F84022BC
:109290006B4902226AE7012D08D1C0F81851D4F8B1
:1092A000E43502A99B6820469847B8E7022D9BD178
:1092B000DAB2002A98D102691B0A023B5268032BDA
:1092C00003D8DFE803F00C0E1012012363F306123B
:1092D000594BC3F84422012384F816319FE7022337
:1092E000F4E70323F2E70423F0E70523EEE790F821
:1092F0001231023B012B3FF663AF012D7FF474AFB7
:109300000023C0F81831CAE790F81221032A7FF42D
:1093100057AFDBB2012B3FF653AFD0F8E43502A9CB
:109320009B689847BDF80E30002B7FF45DAF76E761
:1093300007F06007202FD9B205D1D0F8E43502A993
:109340009B68984750E7BCF1010F31D0BCF1030F87
:109350001ED0BCF1000F7FF447AF90F81221022A13
:109360005AD0032A7FF42CAF13F0800F4FF028025D
:10937000314B59D001F07F0102FB010191F81E2110
:10938000002A4FD00122C3F848222E490222EDE6DE
:1093900090F81231022B3FD0032B7FF411AF002D38
:1093A0007FF47DAF4A063FF47AAF48F011FC76E7D0
:1093B00090F81221022A2FD0032A7FF401AF002D4A
:1093C0007FF412AF11F07F003FF429AF5BB2002BA6
:1093D0004FF02802B5BF02FB004102FB014101F53D
:1093E0008E7101F55D710022DB0F08708A704B7081
:1093F00004EB8000C9786BB18269136802396FF39E
:10940000555301298CBFC3F30071012161F31C7313
:10941000136044E7426DF0E74B063FF4E5AE48F0D9
:10942000D7FBE1E60022AEE702FB010191F87623CB
:10943000A6E707F08001F2E7F02600202C290020A3
:10944000302900203829002010B5044671BB90F85F
:109450001131032B1BD1D0F89023D0F87C339A42E2
:1094600017D9C178012908BFD0F88013A2EB0302F5
:1094700004BFC918C0F88013934228BF1346C0F830
:1094800090239BB2D0F88023002148F06BFD002090
:1094900010BDD0F8E4351B6923B190F81221032ADE
:1094A00000D19847204648F0ADFCF0E7D0F8E4350D
:1094B0009B69002BEBD090F81221032AE7D1984743
:1094C000E5E770B50A7812F0600406460D462AD02A
:1094D000202C2FD1CC884B78FCB112060CD51F491B
:1094E00022461846FEF788FFEA881C49304648F0B5
:1094F00075FC0024204670BD194A1360194A0323E5
:10950000C2F80C4880F81131C0E9E444234602F562
:109510000162002148F026FDEBE7022211441846C3
:10952000FEF76AFFE6E74B780A2B08D00B2B0BD02F
:10953000062BDFD1304648F07DFB0224DAE70A49EA
:10954000012248F04BFCD5E78B781BB9074BC3F8D9
:109550004C42CFE748F06EFBCCE700BF081E00206E
:1095600000000020F81500203C290020F0260020F3
:1095700010B5282303FB0101074AB1F88C130446F8
:109580001046FEF78EFF2046034A4023012148F093
:10959000E9FC002010BD00BF4029002070B50F4D30
:1095A000D5F89832044643B195F89C2295F8B0322C
:1095B000134302D1012148F00BFB8121204648F0E2
:1095C00007FB95F8B032022B07D12046044ABDE8CC
:1095D00070401F23012148F0C5BC70BDF02600205B
:1095E00080290020002310B519460446402248F087
:1095F00058FB402280212046002348F052FB0123E3
:1096000084F81231D4F8E835A0785B6898470020D8
:1096100010BD38B5402204460223812148F041FBA9
:10962000204602234022012148F03BFB2046032331
:109630000822822148F035FB084B0222002583F8DE
:109640004B2083F84C50FEF7C3FE01212046044A0C
:10965000402348F087FC284638BD00BF00000020AA
:109660004029002010B58121044648F0F1FA204637
:10967000012148F0EDFA2046822148F0E9FAFEF790
:10968000B3FE002010BD10B58121044648F0E0FA79
:109690002046012148F0DCFA024B002083F8B10299
:1096A00010BD00BFF026002038B5264C94F8302BB2
:1096B000012A034633D12448D0F8B4221AB984F8D9
:1096C000302B002038BD402AD4F8281919D9403A47
:1096D00001F14005C0F8B422C4F8285940221B48C3
:1096E00010FA81F1C3E9541140F201100021C3E9DD
:1096F0005621A3F8440103F5A271184648F099FBDE
:10970000DFE702EB0105C4F828594FF00005C0F867
:10971000B4520ABF022092B284F8300BDFE7022A6B
:10972000CFD1002540F20112C0E95455C0E9565589
:10973000A0F8442100F5A27148F07BFB84F8305B6F
:10974000BFE700BFF8150020F026002029210020E7
:1097500038B52A4CD4F8B8320F2B03F1010203D0EC
:10976000C4F8B822002038BD254A0023C4F8B83216
:1097700092F8303B002BF5D1D2F82819B1F5006FE3
:1097800008BFC2F82839D2F82819D2F82C399942E2
:1097900003D1002382F8303BE4E78CBFC1F50063BE
:1097A0005B1A402B1BD9403B01F14005C4F8B43291
:1097B000012382F8303BC2F828594023114A12FA9B
:1097C00081F140F20112A0F844210022C0E95411B5
:1097D000C0E9563200F5A27148F02BFBC2E701EB5D
:1097E0000305C2F828594FF00005C4F8B4520EBF63
:1097F000022401249BB282F8304BDFE7F0260020E0
:10980000F81500202921002070B50446144EFFF7FA
:109810003AFF204602234022812148F042FA4022AA
:1098200001212046022348F03CFA0025D6F8BC323C
:1098300086F8B1521B6886F8B05228469847E0680F
:1098400048F0DAFDE068012148F0ECFD20461F23D6
:1098500006F52472012148F085FB284670BD00BF43
:10986000F026002008B5002046F03CFA002008BD94
:109870002DE9F843089D0E46174600212022044694
:1098800098464DF00CFF4DB12B68E3811A0C6B68C4
:109890002282E3821A0C6B8922836382304649F06C
:1098A000F9F9FB0604D400F1FF39B9F1FF3F41D1CA
:1098B000082802464FF0FF39A8BF082200254FF0C4
:1098C000203323606360314620464DF0AFFC234ACD
:1098D000228104F1080309F10101A27218462A4607
:1098E00031444DF0A3FC621E0346E01D12F8011F37
:1098F000A1F16105192D9CBF203911708242F5D16B
:10990000184604F10B0210F8013BA3F1610119297B
:109910009CBF203B00F8013C9042F4D118232373F4
:109920004FEA1843A382099BE772A4F81A80E36107
:10993000BDE8F88316F809302E2B02D009F1FF3963
:10994000B3E74A46A0EB0905082A05F1FF35A8BF91
:109950000822032DA8BF0325B1E700BF2020200067
:109960002DE9F04F012085B00D461646994646F088
:10997000B9F9B64F04352C1FB9F1000F06D148468E
:1099800046F0B0F9484605B0BDE8F08FD7F8502A48
:10999000B24200F2B780D7F860AAA6EB02084FEAFD
:1099A000D803DAF830200233934208F0070803D3D3
:1099B000DAF83820934218D951461846039346F0F6
:1099C0005CF8039B824670B9A5F1080305F5FC72AB
:1099D0009F4943F8041F9342FAD109F1FF39013638
:1099E00005F50075C7E7C7F8600A9AF80420002A51
:1099F0006DD04FF40072002120464DF050FEDAF891
:109A00004030B8F1000F47D1CDE9008805F11C0BBB
:109A100043BB43462046D7F83C1A0822FFF728FFED
:109A20005C464FF4F073DAF8448004EB030AB8F1B3
:109A3000000FD2D05445D0D098F80420D8F80010A8
:109A4000D8F8303004F1200B08F11C00B2B300222A
:109A5000CDE9000211222046FFF70AFF5C46D8F844
:109A60004880E4E7DAF830307A4911222046FFF7DF
:109A7000FFFEDAF840301A6C05F13C04CDE90088AD
:109A800042B94346744911225846FFF7F1FE4FF49C
:109A9000E073C8E71B6BF5E7002B0CBF0122022225
:109AA000C2EB0812DAF84480B8F1000F03D0013A93
:109AB000D8F84880F8D14FF40073B6E798F805C09D
:109AC000D8F81020CDE900024CF02102C3E7DAF803
:109AD00028B0BBF1000F06D14FF4007200212046E0
:109AE0004DF0DDFD79E7DAF830209B1ADAF80C202A
:109AF00008EBC30802EB482253464FF4007120469E
:109B0000D8476AE7002E64D14FF4007231462046F0
:109B10004DF0C5FD802385F8BA310C2385F8BE31A0
:109B2000D7F8402A4D49D7F8383AC4F8C6218A42B6
:109B3000C4F8CA3118DDFF2285F8BB2185F8BD21A4
:109B400085F8BC21454A013B934228DDFF2385F877
:109B5000BF3185F8C13185F8C031552385F8FA3118
:109B6000AA2385F8FB3138E73F2192FBF1F1C1EBE5
:109B7000811C43F6C16492FBF4F4A2EB0C02A0102A
:109B800020F03F000132024385F8BC21FF2291FB07
:109B9000F2F2114485F8BD4185F8BB11D2E73F22AE
:109BA00093FBF2F2C2EB821443F6C16093FBF0F038
:109BB0001B1B811021F03F0101330B4385F8C0319D
:109BC000FF2392FBF3F31A4485F8C10185F8BF2106
:109BD000C3E7D7F8443A9E4242D1522323706370C0
:109BE0006123A37084F8E731D7F8583AC4F8E83114
:109BF0004FF000084FF0FF3341227221E27084F8E9
:109C0000E41184F8E51184F8E62184F8EC3184F855
:109C1000ED3184F8EE3184F8EF314FF4F0724146C3
:109C200028464DF03CFD5523C5F8EC81C5F8F08180
:109C3000C5F8F48184F8FE316FF0550384F8FC8197
:109C400084F8FD8184F8FF31C7E600BFF8150020D5
:109C5000DEADBEEF134B0608124B0608FF03FB00F8
:109C6000D7F8403A9E426DD14FF400720021204651
:109C70004DF015FDEB2305F8043C3B4A582305F84D
:109C8000033C902305F8023C136845F8013C5368F7
:109C9000C5F80330022200234FF0080CF821E372CC
:109CA000227385F809C0A273E37369743F212A7394
:109CB00021764FF0FF31A1763E21D7F8400A217777
:109CC000D7F8381A84F82C20091A2162D7F8480AE4
:109CD000D7F84C1A63760122091AE3766377A377E3
:109CE000E37784F82D3084F82E3084F82F306162C9
:109CF00084F8302084F83130802385F83C302923E3
:109D000085F83E30942385F83F300E2385F84030A7
:109D10000D2385F84130154B85F842C01A68C5F807
:109D200043205A68C5F847201A89A5F84B20104AE5
:109D30009B7A85F84D301368C5F84E305368C5F8E6
:109D400052300AE7D7F8481AD7F84C3A8E4206D371
:109D50009E4207D2711A204645F0B2FE3DE69E4271
:109D6000FFF4BAAEF11AF6E74015060849150608E1
:109D70005515060813460A460146184632F02EB815
:109D8000024BD3F8C00208F01FBB00BFF026002032
:109D900008B5006847F071FD024BC3F8E40A0120E2
:109DA00008BD00BFF815002008B5006847F065FD44
:109DB000024BC3F8F80A012008BD00BFF8150020C7
:109DC00010B50D4B0D4CD3F80C3BD4F8C4021B1A44
:109DD000FA2B06D9042019F097FC002084F8C80259
:109DE00010BD11B1D4F8CC320B6012B1D4F8D0321E
:109DF00013600120F4E700BFF8150020F0260020D2
:109E00000E49D1F8883043F47003C1F888300C4B08
:109E10001A68002042F001021A6098601A6822F065
:109E2000847222F480321A60064A5A601A6822F458
:109E300080221A60D860044B8B60704700ED00E010
:109E4000003802401030002400000008704700284D
:109E5000ACBF00F16040074B4FEA0111ACBF00F509
:109E6000614000F00F00C9B2B4BF195480F800136C
:109E7000704700BF14ED00E02DE9F0479846414BD4
:109E8000914603EB800205469468002C78D0283375
:109E9000636004F13E03A36104F59F73E3614FF433
:109EA0008073C4E90433236894F83D00E160A36340
:109EB00006F0BCFB064694F8440294F83CA0271D2B
:109EC00008B145F07DFF94F8450208B145F078FFF0
:109ED000D4F840321BB12C4A116B0B43136318F0BA
:109EE000080F2CD00135EDB21EB140F20673F3809D
:109EF000357218F0100F94F846221AD0022130461D
:109F000006F054FBD4F8481294F94702FFF79FFF7C
:109F100094F9473294F84722002B07DB02F01F0127
:109F200001228A405B09194941F823203846BDE8DF
:109F3000F08718F0200F14BF12213221DFE719F04B
:109F4000020F0CD06B1CDBB21EB140F20652F28045
:109F5000337294F846220221304606F027FB19F0AE
:109F6000010FCFD0504606F061FB0135EDB218B1BC
:109F700040F20663C380057294F846220221BFE7CF
:109F80002746D3E7D87705080038024000E100E013
:109F90000148FEF772B800BFB40000200148FEF788
:109FA0006CB800BF000300207047064A002352F837
:109FB0003310814201D1D8B2704701330E2BF6D154
:109FC000FE20704730780508704770B5002828D00B
:109FD0004C684CB9426815685679AB8902229BB22D
:109FE000B24023EA0203AB818A683AB943681D682C
:109FF000AB8923F001031B041B0CAB81816044B1CE
:10A000004468216864798D890223A3402B439BB265
:10A010008B8132B143681A6893899BB243F0010384
:10A02000938170BD0B4B30B51A4600241D798542D3
:10A0300008D1DD68294203D0142000FB042030BD84
:10A040000029F9D00134062C03F11403EED10020CD
:10A05000F5E700BF4805002038B503681B681C6899
:10A06000254B03F5B86393ED007A07EE902AB8EE1E
:10A07000477AF8EE677A013987EE270A8DB2DFED6D
:10A080001F7A30EE270A4AF0B1F91D4A23880138B9
:10A09000944280B29BB212D002F5806294420ED0FC
:10A0A000B4F1804F0BD0A2F58032944207D002F574
:10A0B0008062944203D002F58062944202D123F080
:10A0C00070039BB20F4A944206D002F5806294421C
:10A0D0001CBF23F440739BB22380094BE5629C4272
:10A0E000208503D003F580639C4201D100232386A1
:10A0F0000123A38238BD00BF000000200AD7233C03
:10A10000000001400010004043685A79032A0FD82C
:10A11000DFE802F00205080B186834307047186851
:10A120003830704718683C307047186840307047C6
:10A130000020704710B543681A685879084B0344EB
:10A14000012093F8C840138CA0409BB223EA00037F
:10A150001384138CA140194389B2118410BD00BF30
:10A16000D8770508024B0348D3F8D412FEF7D2BEC5
:10A17000F02600200000014010B5064C0648D4F837
:10A18000D412FEF7C7FED4F8F4120448BDE810401C
:10A19000FEF7C0BEF0260020000001400040014054
:10A1A00010B5064C0648D4F8D412FEF7B3FED4F826
:10A1B000F8120448BDE81040FEF7ACBEF0260020BF
:10A1C000000001400044014010B5064C0648D4F898
:10A1D000D412FEF79FFED4F8FC120448BDE81040EC
:10A1E000FEF798BEF0260020000001400048014024
:10A1F000034B4FF08040D3F8D812FEF78BBE00BF60
:10A20000F0260020024B0348D3F8DC12FEF782BE92
:10A21000F026002000040040024B0348D3F8E0126F
:10A22000FEF778BEF026002000080040024B0348ED
:10A23000D3F8E412FEF76EBEF0260020000C0040BA
:10A240000348D0F8D03513B100F2C4501847704716
:10A25000000000200348D0F8F03513B100F2E450BC
:10A2600018477047000000200348D0F8103613B19B
:10A2700000F2046018477047000000200348D0F83F
:10A28000303613B100F224601847704700000020F8
:10A290000348D0F8503613B100F2446018477047B5
:10A2A000000000200348D0F8703613B100F264605B
:10A2B00018477047000000200348D0F8903613B1CB
:10A2C00000F2846018477047000000200348D0F86F
:10A2D000B03613B100F2A4601847704700000020A8
:10A2E0000348D0F8D03613B100F2C4601847704765
:10A2F000000000200348D0F8F03613B100F2E4600B
:10A3000018477047000000200348D0F8103713B1F9
:10A3100000F2047018477047000000200348D0F88E
:10A32000303713B100F22470184770470000002046
:10A330000348D0F8503713B100F244701847704703
:10A34000000000200348D0F8703713B100F26470A9
:10A3500018477047000000200348D0F8903713B129
:10A3600000F2847018477047000000200348D0F8BE
:10A37000B03713B100F2A4701847704700000020F6
:10A38000036823F0010303600023036043608360DC
:10A39000C3600361212343612A4B984203D13D22CC
:10A3A00043F8082C7047284B984204D14FF474624C
:10A3B00043F8202C7047254B984204D14FF4741277
:10A3C00043F8382C7047224B984204D14FF0746206
:10A3D00043F8502C70471F4B984203D11E4A43F854
:10A3E000642C70471D4B984203D11D4A43F87C2CC6
:10A3F00070471C4B984203D11B4A43F8942C70477A
:10A400001A4B984204D14FF03D5243F8AC2C17E060
:10A41000174B9842C3D0174B9842C7D0164B98425F
:10A42000CCD0164B9842D1D0154B9842D6D0154B74
:10A430009842DAD0144B9842DED0144B9842E2D0C6
:10A44000704700BF10600240286002404060024038
:10A4500058600240706002403D0000208860024069
:10A46000400F0020A060024000003D20B860024084
:10A470001064024028640240406402405864024074
:10A480007064024088640240A0640240B8640240E4
:10A490002DE9F0410022012603250B6806FA02FC93
:10A4A0003CEA030331D10368540005FA04FE23EAB1
:10A4B0000E0303600B79D0F800806FEA0E0703FAF1
:10A4C00004FE013B4EEA080E012BC0F800E011D853
:10A4D00083681F4087604B798768A3403B43836054
:10A4E000436823EA0C0343608B79476893409BB22F
:10A4F0003B434360C36805FA04F723EA0703C360DC
:10A50000CB79C768A3403B43C3600132102AC4D152
:10A51000BDE8F081204A936803F00C03042B10B5CA
:10A5200020D0082B20D01D4B1B4C0360A3681C4A75
:10A53000C3F30313134493F8C4170368CB40436079
:10A54000A168C1F38221114491F8C41723FA01F1E3
:10A550008160A168C1F342310A4492F8C427D34014
:10A56000C36010BD0F4BDFE75368516813F4800FD1
:10A5700001F03F01536814BF0A4A084AB2FBF1F1E7
:10A58000054A5268C2F30142C3F3881301324B43B8
:10A590005200B3FBF2F3C7E7003802400024F40096
:10A5A0000000002000127A00F0B5446B8668A38991
:10A5B00023F400531B041B0CA3818279278A0546D0
:10A5C000BFB2100312F0040F4FEA022100F4005052
:10A5D0006A7927F4405740EA0700208214BF4FF4FD
:10A5E000805C4FF0000C12F0010F0CBF002304231D
:10A5F0009207A28922F4B05201F4806122F00C0289
:10A6000048BF43F0080341EA0C0112040B43120C4B
:10A610001A43A281A38A23F440731B041B0C85B048
:10A62000A3826846FFF776FF214B9C4203D003F5D7
:10A6300080639C423AD1039BA2891921170401FB34
:10A6400003F34FF064014CBF7600B600B3FBF6F3A2
:10A65000B3FBF1F001FB10330201A08900044BBFF2
:10A66000DB001B01323332334BBFB3FBF1F3B3FBDF
:10A67000F1F303F0070303F00F0313439BB22381AD
:10A680006A6BAB7913F0080F938A0BBF23F00803B2
:10A690009BB21B0443F0080308BF1B0C93829389F1
:10A6A0009BB243F40053938105B0F0BD029BC3E716
:10A6B000001001402DE9F8431E46204B9DF8205024
:10A6C0009DF824709842894690462CD13B462A46F4
:10A6D00031460020FFF7D0FB04460020C4E9070004
:10A6E000C4E90900C4E90B986571A660A77120460A
:10A6F000FFF75AFFEA0707D5636B4FF6DF721A8040
:10A70000DA6842F02002DA60626BAB0742BFD368BE
:10A7100043F08003D36093899BB243F40053938149
:10A720002046BDE8F883064B984204D13B462A46B2
:10A7300031460120CEE70024F2E700BF00100140BF
:10A740000044004081602FE741712DE72DE9F0437F
:10A75000654F07EBC00985B005464FEAC00899F878
:10A76000D80705F063FF064699F8D90705F05EFFA4
:10A77000044699F8DA0745F023FB6B1CDBB21EB1E7
:10A7800040F60B12F28033721CB140F60B22E280CD
:10A79000237204223A21304605F008FF20460422A5
:10A7A0003A2105F003FF07EB0803D3F8D4474F4BDA
:10A7B0009C4263D103F5F2331A6A42F400121A6222
:10A7C0001A6A22F400121A62474497F8DB37022B08
:10A7D0006ED0032B6ED0464E464A012B08BF16465C
:10A7E000A78827F03F0768463F04FFF793FE3F0C1A
:10A7F000029A414BB2FBF3F398B20743A78021883A
:10A8000021F001010904090C21803C498E4253D1F9
:10A810003B4BB2FBF3F2013092B2042A80B238BF54
:10A8200004222084A28323889BB243F00103238067
:10A83000238823F4816323F002031B041B0C43F4DD
:10A84000806323804FF480432381238823F0800397
:10A850001B041B0C238023889BB243F0010323803D
:10A86000284B03EB4513012283F81123002283F8C0
:10A87000105383F8122305B0BDE8F083224B9C42AD
:10A8800009D103F5F0331A6A42F480021A621A6A97
:10A8900022F4800297E71D4B9C4295D103F5EE33DD
:10A8A0001A6A42F400021A621A6A22F400028AE763
:10A8B000124E95E7124E93E706EB4606B2FBF6F210
:10A8C00091B2C2F30B020AB941F0010141F4004216
:10A8D0004FF496714B434FF47A71B3FBF1F30133AC
:10A8E0009BB223849EE700BF00000020005400407C
:10A8F000801A060000350C0040420F00A0860100BF
:10A90000400D0300F026002000580040005C00408D
:10A910002DE9F047B74D460105EB401907F096FECB
:10A9200099F91023B44B8846D10003EBC2020746C5
:10A93000D2F8D44799F81223013A142A00F28380FE
:10A94000DFE812F0790089009F00B700C200CC0058
:10A95000D500EA00F5000A01150164017D01A3019B
:10A9600006021702290232024302670215005F182D
:10A970004FF0090A97F8D80705F058FE044697F8F3
:10A98000D90705F053FEB5F8703301339BB2074683
:10A990002046A5F8703305F0D6FD384605F0D3FD06
:10A9A0001121204605F0D9FD1121384605F0D5FDCD
:10A9B0004FF0650803E00520002107F075FE2046F2
:10A9C00005F0B8FD10B9B8F10108F4D1204605F042
:10A9D000BFFD0021052007F067FE204605F0B3FD0E
:10A9E0000520002107F060FEBAF1010AE0D12046FF
:10A9F00005F0AEFD0021052007F056FE384605F0B3
:10AA0000A7FD0021052007F04FFE204605F09BFD25
:10AA10000520002107F048FE384605F094FDAB19EB
:10AA200093F91003431C01D0FFF790FEAB190022ED
:10AA300083F8122307E0238813F4007340F0238186
:10AA4000AA1982F81233AB1993F81233002B7FF452
:10AA500065AFBDE8F087238823F400631B041B0C5B
:10AA6000238023889BB243F48063238023889BB296
:10AA700043F480732380AB19C3E9C678032283F8BB
:10AA800012235E492046FDF7A0FBAB19002855D0E4
:10AA900093F822235AB993F82323FF2A04D193F879
:10AAA00020230AB10A22C3E7AB190422C0E70F2210
:10AAB000BEE7AB1993F8212302F0FE022282C3E91C
:10AAC000C678052283F812234D492046FDF77DFB09
:10AAD000002800F07081AB190622A9E7AB1993F8A2
:10AAE00023232282C3E9C678072283F8122345492B
:10AAF0002046FDF76AFB002800F05D81AB19D3F812
:10AB000024233AB9228892B242F400722280C3E927
:10AB1000C6780EE108228BE723889BB243F480734A
:10AB20002380AB19C3E9C678092283F8122333497D
:10AB30002046FDF74AFBAB190028B3D1D3E9C60183
:10AB400042F21072381A68EB0101904271F1000272
:10AB5000FFF479AF15226BE7AB1993F8212342F08C
:10AB600001022282C3E9C6780B2283F81223264908
:10AB70002046FDF72AFB002800F01D81AA19D2F813
:10AB80002433012B1AD1238823F480631B041B0C6C
:10AB90002380EFF31181102383F31288238B238802
:10ABA0009BB243F400732380CBB283F311880C2350
:10ABB00082F81233AB19C3E9C67844E7022B15D1EA
:10ABC00023889BB243F400632380EFF311811023A9
:10ABD00083F31288238B238823F480631B041B0CCC
:10ABE0002380CBB283F311880D23E1E7238B0E235F
:10ABF000DEE700BFF0260020000000200100030077
:10AC000082000700840007000200030086492046F6
:10AC1000FDF7E6FAAB19002890D0D3F82823511C91
:10AC2000C3F82813218A1170D3F82423013AC3F8FA
:10AC300024230122C3E9C67883F82C23F8E67B4954
:10AC40002046FDF7CDFAF0B1EFF31182102383F324
:10AC5000128823889BB243F400732380AB19D2B2CD
:10AC6000D3F82813481CC3F82803208A087082F3FD
:10AC70001188D3F82823511CC3F82813218A117096
:10AC80006FF00102D3E7AB1958E768492046FDF79A
:10AC9000A7FAAB1900283FF451AFD3F82423032AB5
:10ACA00003F5467130D1228822F480621204120C1E
:10ACB0002280EFF31180102282F31288D3F8282328
:10ACC00002F1010CC3F828C3B4F810C082F800C028
:10ACD000228892B242F400722280C2B282F31188BA
:10ACE000D3F82823501CC3F82803208A1070D3F807
:10ACF0002423023AC3F824230C2283F81223C3F836
:10AD00001873C1F804809EE6022A14D8228822F41F
:10AD100080621204120C2280228892B242F40072E5
:10AD20002280228AC3F81873002283F82C23C1F8EA
:10AD3000048001227CE6D3F82823501CC3F82803A2
:10AD4000208A1070D3F82423013AC3F82423D6E7CD
:10AD5000238823F480631B041B0C2380AB1993F816
:10AD6000212302F0FE022282C3E9C678102283F872
:10AD700012232F492046FDF728FAE0B1AB1993F8CA
:10AD80002323FF2A04D193F820230AB113224FE68C
:10AD9000AB1911224CE6AB1993F823232282C3E9A5
:10ADA000C678122283F8122322492046FDF70DFAB5
:10ADB00008B1AB19EAE720492046FDF711FAAB19B3
:10ADC00000283FF4BBAE142232E6AB1903F54670FF
:10ADD000D3F8242382B1D3F82813013A11F801CB18
:10ADE000A4F810C0C3F82423C3F81873C3F82813B9
:10ADF000C0F8048012221BE6228892B242F400724C
:10AE000022800122C3F8187383F82C23C0F8048031
:10AE10000EE623889BB243F4007323804FF6FF3382
:10AE2000A382AB1973E600BF4000001004000010BD
:10AE300082000700840007000004001038B5114CA0
:10AE400004EB401494F81153D5B1C4F82433049B97
:10AE5000C4F82833002384F82C330223490084F8F3
:10AE6000232384F8123301229DF8143084F821132F
:10AE700084F8222384F82033FFF74AFD94F82C53FA
:10AE8000284638BDF026002038B5114C04EB40149C
:10AE900094F81153CDB1C4F82433049BC4F828337B
:10AEA0000223490084F8232384F8123300229DF8FA
:10AEB000143084F8211384F8222384F82C2384F896
:10AEC0002033FFF725FD94F82C53284638BD00BFEA
:10AED000F0260020F0B587B0002300930193744B57
:10AEE0001A6842F480321A601A6802F40032019241
:10AEF000009A01320092019A1AB9009AB2F5A04F55
:10AF0000F2D11B6813F4003318BF01230193019B96
:10AF1000012B40F0B180664B66491A6C42F08052BA
:10AF20001A640A6842F440420A609A689A609A6811
:10AF30009A609A6842F480529A605F4A5A601A682E
:10AF400042F080721A601A689201FCD55B4A40F2A6
:10AF5000027111609A6822F003029A609A6842F0C6
:10AF600002029A60524A936803F00C03082BFAD14C
:10AF70009368534C03F00C03042B7FD0082B7FD035
:10AF8000504BC4F8C0354A4B4F4D9A684F48C2F3F6
:10AF900003122244002692F8EC17D4F8C025CA40C8
:10AFA000C4F8C0254A4AEA605A6F4A4AAA605A6BF6
:10AFB00022F080025A635A6F42F080725A67196B0E
:10AFC000454A0A431A635A6B5A631A6C42F0875215
:10AFD00042F4F61242F41F6242F00F021A64596CF6
:10AFE0003E4A0A435A6402A948F2FF73CDE9023689
:10AFF0004FF6FF77FFF74CFA00F580600297FFF7F6
:10B0000047FA00F580600297FFF742FA00F580608A
:10B01000FFF73EFA00F58060FFF73AFA0846FFF7BF
:10B0200079FA029B2E4AB3FBF2F32E4AC2F874332C
:10B03000D5F8FC302C4A43F08073C5F8FC302B4B1C
:10B04000C3F8B02F5E601A6842F001021A60D4F8AB
:10B05000C0354FF47A72B3FBF2F3013BB3F1807F5A
:10B0600008D24FF0E0225361F02385F82330072304
:10B070009661136107B0F0BD00BFFDE71C4B80E790
:10B080005368516813F4800F01F03F01536814BFF7
:10B09000174A0C4AB2FBF1F1054A5268C2F3014269
:10B0A000C3F3881301324B435200B3FBF2F368E75A
:10B0B000003802400070004008304004003C02406C
:10B0C000000000200024F40000ED00E00000024039
:10B0D0000003FA05000000081F90670033570700BF
:10B0E00040420F00F026002055CEACC5001000E015
:10B0F00000127A0082B000230193054B0193019B5B
:10B1000003EB80000190019B196002B0704700BF03
:10B110005028004082B000230193054B0193019B0E
:10B1200003EB80000190019B186802B0704700BFDC
:10B130005028004010B51C2005F078FA1121044673
:10B1400005F00BFA204605F003FAC82007F0BDFA17
:10B150002046BDE8104005F0F6B9436D064A1A6175
:10B16000C278012A06D100F2CC5058611A684FF01B
:10B1700080221A60704700BF1800086038B5044686
:10B1800000296FD190F81131022B2AD1D0F8382143
:10B19000D0F824118A4232D9C378012B04BFD0F8E9
:10B1A00028315B18A2EB010208BFC0F828314FF428
:10B1B0008071D0F82831C0F83821002592B2A0F86B
:10B1C0001C11C0F82C31C0F83451C0F8302100F502
:10B1D0008E7146F0B1FD2B462A462946204646F0A0
:10B1E000C1FE94F81631012B07D1244A2369D2F805
:10B1F00044225A60002384F81631002038BDD0F86C
:10B200003C31B3FBF1F501FB1535A5B9994212D8D4
:10B21000D0F8402193420ED24FF48073C0E94A55D2
:10B22000C0E94C55A0F81C3100F58E7146F084FD44
:10B23000C4F84051CFE7D4F8E435DB682BB194F87B
:10B240001221032A01D120469847052384F81131A1
:10B25000002320461A46194646F084FE2046FFF792
:10B260007CFFBEE7D0F8E4355B69002BC5D090F8D1
:10B270001221032AC1D19847BFE700BFF026002062
:10B2800070477047704710B5114C94F88233CBB1BA
:10B290004FF0E022D2F8103D23F00603C2F8103D33
:10B2A000FEF7AEFD94F8823363B1D4F888339B681F
:10B2B000DB0707D5D4F88424136823F0030161F376
:10B2C00007031360034B4FF480225A6110BD00BF87
:10B2D000F0260020003C01402DE9F04F974CD4F8B7
:10B2E00084335A69D0078DB000F1A5825A699B69F1
:10B2F0001340019300F09F82C3F307430293019B25
:10B30000190311D5D4F88833DFF83C929E69DB69C4
:10B3100004F55E7B1E40360C04F573774FF0000891
:10B32000DA46002E40F01681029B5A070FD5D4F85A
:10B330008833834E9F69DB691F40BFB2A6F11805B1
:10B340004FF00009A6F56478002F40F04881019B7A
:10B350009DF80470980741BF784BD3F884330222DC
:10B360005A61019B002B1BDA744D95F882333BB177
:10B37000D5F88424136823F0030161F307031360F5
:10B38000D5F888236F48536823F0010353606E4B50
:10B39000D3F814389847D5F884334FF000425A61F7
:10B3A000019B1905C3F3072631D5644D00238DF8A1
:10B3B0001F3095F88A348DF81F30634B05F55E70A9
:10B3C000D3F810389847D5F88423D5F888334FF44C
:10B3D00000619B68516195F88223C2B1DA0716D5E6
:10B3E00095F88D34012B12D19DF81F30032B0ED10F
:10B3F000D5F884341A6842F001021A601A6842F0E3
:10B4000003021A60514A136943F0060313613B07B4
:10B410000AD54A4D4C4B05F55E70D3F8083898476D
:10B42000D5F8843308225A61FD0615D5434BD3F86D
:10B430008403826922F010028261026AC2F34341EE
:10B44000022902F00F0500F08781062900F0AB8188
:10B45000836943F010038361F00637D5374DD5F883
:10B460008823D5F884035368002723F00103536031
:10B47000394646F0D7FFB84695F879033B4605F5BF
:10B480006475FF218342C0F09C81D4F888332D4835
:10B490004FF0FF329A614FF00112DA610B2262F332
:10B4A000070762F307085F61C3F810801A686FF33B
:10B4B0000A121A60FFF751FED4F8843321484FF482
:10B4C00080525A61204BD3F80C389847B10640F1AE
:10B4D00094811A4CD4F88833D4F8900399680268A0
:10B4E000C1F34101022906BF032161F30A026FF390
:10B4F0000A0202605A6842F480725A6008A8FFF794
:10B5000009F8D4F88413D4F88803CB68099A6FF348
:10B510008D23CB6085680E48C5F34105284490F81B
:10B52000CC00032840F05481002284F87A234FF4A1
:10B530000072A4F87C23092259E100BFF026002004
:10B54000802A0020682A00200000002000ED00E092
:10B55000D8770508F2073BD55FFA88F104EB810341
:10B56000D3F8CC339D68D4F888335B691D40EB0772
:10B5700020D594F87B033B680125A8429D6007D144
:10B580001869DBF87C33C0F312001B1ACBF88C333C
:10B59000D9F8FC375046984794F87B33012B09D1F2
:10B5A000B8F1000F06D194F88934052B02D150462A
:10B5B000FFF7D3FDA80742BF3B6802259D6029071E
:10B5C00006D5D9F80438504698473B6808229A6057
:10B5D00008F10108760804370BF1280BA1E6FB07F8
:10B5E00077D5D8F888335FFA89FA1969586B08EB70
:10B5F0008A0220FA0AFBD2F890234FEACB1B92680A
:10B600005FFA8BFB4BEA010B0BEA020B1BF0010FFD
:10B610001ED05A6BA8484FF0010B0BFA09F122EA31
:10B6200001025A633368C3F808B0A44B5146D3F8FB
:10B630000038984798F87B335B4509D1B9F1000F82
:10B6400006D198F88934042B02D19B48FFF785FD79
:10B650001BF0080F1EBF33684FF0080BC3F808B08B
:10B660001BF0100F1EBF33684FF0100BC3F808B06B
:10B670001BF0400F1EBF33684FF0400BC3F808B0FB
:10B680001BF0020F1EBF33684FF0020BC3F808B067
:10B690001BF0800F1DD0D5E94C329B1AD5F8242120
:10B6A000D6F800E098F87BB3DEF81800934228BF84
:10B6B00013460333D8F8882303920AF1320A9B0811
:10B6C00008EB8A0A80B2984203D9D5E94C03984224
:10B6D00005D809F101097F080436283534E6C01A77
:10B6E000D5F82431984228BF1846C31C9B08BBF1EB
:10B6F000000F1CD0D5F82811D5F834210144C5F825
:10B700002811D5F8301102448A42DEF81800C5F835
:10B710003421D7D1039A95F81C11526B4FF0010CCC
:10B720000CFA01F122EA010203994A63CAE7D5F84B
:10B730002821049282B2DAF88013033292108C46E8
:10B7400005925946059A8A42D4D0049A52F821208B
:10B75000CCF800200131F5E747F6F07111423FF4D3
:10B7600077AE282101FB0531C2F30A12D71CD3F8AA
:10B7700048E4D1F8F8C6BF1000218F420DD128212E
:10B7800001FB0533D3F8F8161144C3F8F816D3F8C3
:10B7900004170A44C3F804275AE6DEF800804CF880
:10B7A00021800131E9E7D3F848140F68C3F84479E0
:10B7B0000968C3F84819282101FB0533C2F30A12AE
:10B7C000E5E755F8042B9160AA6B0133916059E6C7
:10B7D000012084F87A034020A4F87C03A0F56400DB
:10B7E000374CA0F562401044A04227D80E2262F3E5
:10B7F0008D23CB604FF400534B61029BDA060BD5CF
:10B80000304C2E4B04F55E70D3F818389847D4F8B6
:10B8100084334FF480125A61029B9B060BD5294C4E
:10B82000264B04F55E70D3F81C389847D4F884335F
:10B830004FF400125A610DB0BDE8F08F224CA2F512
:10B840007400A0F51050A04201D80D22CFE71F4888
:10B850001F4C1044A04201D20C22C8E71D4CA2F19B
:10B860008C70A0F54340A04201D80B22BFE71A48D4
:10B870001A4C1044A04201D20A22B8E71848194CC9
:10B880001044A042FFF457AE174CA2F1B770A0F5D8
:10B890005850A04201D20822A9E71448144C104481
:10B8A000A04201D20722A2E712481044124A904255
:10B8B00034BF062205229AE7682A002000000020F3
:10B8C0003F420F00F0260020DFC810002013FBFECF
:10B8D00020D61300FF69180000D3CEFE40771B006E
:10B8E000C05BB3FEC091210040AC2700C01D6AFEC2
:10B8F00040E13300803C36FEE09C410070B5124DC3
:10B90000124BC5F86C3940F20112002385F8B132B0
:10B91000A0F84421C0F85C3105F66C120D23C0E993
:10B920005422044685F87819C0F8583100F5A27100
:10B9300046F07FFA05F5247220461F23BDE87040CB
:10B94000012146F00FBB00BFF026002055534253A3
:10B9500010B5074B93F89D12044646F021FB0028D2
:10B9600004DA20460121BDE81040C7E710BD00BF42
:10B97000F0260020F8B50B7813F0600506460C465B
:10B9800038D0202D74D14A78FE2A05D0FF2A1CD049
:10B9900046F050F902252BE04D88A5B9CF88012F3C
:10B9A00011D11A060FD5334CD4F8BC329B69984795
:10B9B000C0B284F87C0930B13A4604F67C113046B6
:10B9C00046F00CFA14E03046E2E74A88002AFAD141
:10B9D000CD88002DF7D11B06F5D4264A012182F827
:10B9E000B15282F8B0121F2302F5247246F0BAFA5F
:10B9F0002846F8BD4B780A2B24D00B2B25D0012BE1
:10BA0000F6D194F904308988C068002B22DA01F05D
:10BA10007F0146F007FD2179164F304646F018F9B0
:10BA2000022321794022304646F03BF997F8B032A4
:10BA3000022B12D18121304646F0CAF8002387F844
:10BA4000B032D5E70C490122BAE70A4B4A8883F89D
:10BA50007D29CDE746F0D0FCDDE794F90420002AEB
:10BA6000C6DA012BC4D001213046FFF747FFBFE7FC
:10BA70000025BDE7F02600206D30002008B5084BFA
:10BA800093F8B132022B07D0033B012B02D80021DF
:10BA9000FFF734FF002008BDFFF75AFFFAE700BFA9
:10BAA000F026002070B52F4C94F8B16205461EB107
:10BAB000012E54D0002070BDD4F89432C4F87039EF
:10BAC000D4F89832C4F87439B0F8B4331F2B0DD1C0
:10BAD000D4F89022244B9A4208D194F89D1201295F
:10BAE00004D894F89E32013B0F2B0AD9202105205F
:10BAF00044F030F8022384F8B0322846FDF74EFDBA
:10BB0000D8E746F04DFA0028F7DB94F8B132013B54
:10BB1000022BCFD9B4F87E19E9B1D4F8983284F861
:10BB20007869994228BF1946D4F874395B1AC4F869
:10BB30007439042384F8B13240F20113A5F844317A
:10BB40000A4BC5E95616C5E9543305F5A2712846D6
:10BB500046F06FF9AEE72846FFF7D0FEAAE7FFF7F9
:10BB6000F7FEA7E7F0260020555342432464002047
:10BB70004A09012301F01F0103FA01F150F82230B4
:10BB8000194214BF0120002070474A09012301F027
:10BB90001F0103FA01F150F822300B4340F8223024
:10BBA00070474A09012301F01F0103FA01F150F81F
:10BBB000223023EA010340F82230704730B54D09A6
:10BBC000024400EB8504A2424FF0FF3323D901F079
:10BBD0001F018B4050F825100B4093FAA3F3B3FAE2
:10BBE00083F3DBB2202B02D003EB451030BD211DC7
:10BBF00091420C4602D34FF0FF30F7E7236804313F
:10BC000093FAA3F3B3FA83F3DBB2202BF0D0201A1C
:10BC100003EBC000EAE71846E8E780EA01200823C2
:10BC200041F2210210F4004F4FEA400018BF50408B
:10BC3000013B80B2F6D1704738B50C468D18AC4246
:10BC400000D138BD14F8011BFFF7E7FFF7E74840C4
:10BC5000082310F0800F4FEA400018BF80F0D50095
:10BC6000013BC0B2F5D1704710B50A440C4694426E
:10BC700000D110BD14F8011BFFF7E9FFF7E738B555
:10BC80000A46056804460020AA4203D36B1C2360C1
:10BC9000287038BD12F8011BFFF7D9FFF4E7DFED7C
:10BCA0000A7AC0ED020A20EE270AB7EE007AC7EE44
:10BCB000007A00230360C0ED017A70EEA77A80EE6F
:10BCC000A77A80ED037A7047DB0FC94090ED017AC7
:10BCD000D0ED007AC0ED020A30EE877AC0EE876AB6
:10BCE00030EE677AE6EE877AB0EE670AC0ED007A4A
:10BCF0007047012303700023C364836403650364F6
:10BD000043644365836283657047DFED157A80ED98
:10BD1000010AF4EEE70AF1EE10FAC0ED020A80ED36
:10BD2000031AC0ED051A18DDB4EEE70AF1EE10FAB9
:10BD300010DD81EE007AC0EE207AF0EE006A77EE38
:10BD4000877A86EEA77A80ED047A80ED0F2AC0ED1F
:10BD50000E2ACEE700230361F7E700238360FAE7AA
:10BD6000BD378635FDEEC07A17EE903A2033402B72
:10BD700043D8DFED237A9FED237AB4EEE70AF1EEA4
:10BD800010FA28DCDFED207A9FED1E7AB4EEE70A88
:10BD9000F1EE10FA22D4DFED1D7AB4EEE70AF1EEEF
:10BDA00010FA1EDD30EE670A37EEC00A60EE007A48
:10BDB000DFED176A9FED177AA7EEA67ADFED166A18
:10BDC000E7EE876A9FED157AA7EEA67A20EE276A3E
:10BDD000A6EE070A704730EE470ACEE730EE070AB4
:10BDE000D4E79FED0F7AB4EEC70AF1EE10FA44BF24
:10BDF00030EE270A37EE400AD8E79FED0A0A70476F
:10BE0000DB0F4940DB0FC940DB0F49C0DB0FC93FE7
:10BE10009A7C2E36FAAF4FB93587083CA4AA2ABEC1
:10BE2000DB0FC9BF00000000DFED027A30EE270A09
:10BE300098E700BFDB0FC93F38B51D46304BB3FB59
:10BE4000F2F39942B0EE405AF7EE005A4FF0000478
:10BE50004FD207EE901A9FED2B7ADFED2B6AF8EEAA
:10BE6000677A67EE877A07EE102AB8EE477A27EEF0
:10BE7000267AC5EE876A87EEA64AB0EE440AFFF737
:10BE800071FFF0EE404AB0EE440AFFF7CDFF35EE09
:10BE9000055A012D84EE854AF0EE407A1CBF35EE3E
:10BEA000E76AF6EE006AB8EE000A34EE257A12BFB1
:10BEB00066EE266A27EE806AF0EE656A86EE875A9D
:10BEC000C6EE076A67EE807A75EEC45AC0ED016A65
:10BED000C7EE876AC5EE877A80ED005A80ED025A78
:10BEE000C0ED036AC0ED047A846144610462C461F8
:10BEF00038BDC0ED005A44608460C4600461F3E75B
:10BF000020A10700DB0FC940BD3786359FED010A30
:10BF1000002391E7F304353FB5EE400AF1EE10FA45
:10BF200010B5F0EE406A04464FF00003084627D0F3
:10BF300007EE902AF8EE670ADFED1A7A60EEA70A9C
:10BF40004CB9FFF7ACFEFCEEE66ABDE8104016EE19
:10BF5000903A99B2DAE7022C13D0032CF3D19FED7B
:10BF6000120A0B6066EE806AB7EE007AC7EE267A98
:10BF70004B608B6077EEA07A80EEA77A81ED037A32
:10BF800010BD9FED0A7A0B6020EE077AB7EE006ACB
:10BF9000C6EE077A4B6077EEA07A80EEA77A81ED45
:10BFA000027AD0E7BD378635F82F4541D2331C41A0
:10BFB0002DE9F041FCEEC07A13460A4617EE901ABE
:10BFC000D0F814808769C669056AB0EE600A89B244
:10BFD000FFF732FFC0F814808761C6610562BDE8D3
:10BFE000F081F0EEE06AB0EEC07AF4EEC76AF1EEEE
:10BFF00010FAD4BFB0EE476AB0EE666AB5EE406A9A
:10C00000F1EE10FAF0EE405A46D0F4EEC76AF1EEC7
:10C0100010FA54BFB0EE475AB0EE665AC5EE067A33
:10C020009FED1F6A9FED1F5ADFED1F4AA7EE865A4C
:10C030009FED1E6AA5EE276A9FED1D5AA6EE275AB0
:10C040009FED1C6AA5EE276A9FED1B5AE7EE854A15
:10C05000B7EE005AA4EEA75AF1EE467A87EE850AAB
:10C06000F4EEC76AF1EE10FA48BFDFED147AF5EE90
:10C07000C00A48BF37EEC00AF1EE10FA48BFDFED44
:10C08000107AF5EEC05A48BF37EEC00AF1EE10FA4A
:10C0900048BFB1EE400A7047DFED0A7AC0E700BF43
:10C0A00039094E3DE3B59EBE69A2163E88FA16BE1A
:10C0B00045FE7FBFA7DFA8B499FB243FDB0FC93F34
:10C0C000DB0F49400000000044F25063984203DD5A
:10C0D000A0F50C40A0387047034B9842BCBF00F558
:10C0E0000C40A030704700BFB0B9FFFF48F69F4337
:10C0F000984203DDA0F50C40A03870470028BCBF73
:10C1000000F50C40A030704791ED005A08B5B0EE34
:10C11000450AFFF789FEF0EE405AB0EE450AFFF7F8
:10C1200021FE91ED015AF0EE404AB0EE450AFFF7CC
:10C130007BFEF0EE403AB0EE450AFFF713FE91EDBC
:10C14000023AB0EE405AB0EE430AFFF76DFEB0EE91
:10C15000404AB0EE430AFFF705FE25EE806A63EE23
:10C16000C07A24EE847AC0ED017AF0EE467AE5EEEC
:10C17000077A25EE843A64EE806AC0ED037AF0EE29
:10C18000437AE5EE667AA5EE067AE5EE436A23EE9B
:10C19000844A64EEE34A65EEA35A80ED004A80EDDE
:10C1A000025AC0ED047AC0ED054AC0ED066A80ED82
:10C1B000077AC0ED085A08BD034600F1400100228D
:10C1C0001A615A619A61DA6110339942F8D11022EA
:10C1D00000214BF064BAD1ED007A90ED066AD0ED03
:10C1E000095AB8EEE77AD0ED047AE7EE077AB7EEAF
:10C1F000005AC0ED047AD1ED017AF8EEE76AD0ED8D
:10C20000057AE7EE267AC0ED057AD1ED027AF8EEEE
:10C21000E77AA7EE276A80ED066A90ED076A36EEA8
:10C22000076A80ED076A90ED086AA7EE266A80ED3E
:10C23000086A26EEA66A75EE865AA7EE076AC0ED72
:10C24000095AD0ED0A5AE6EEA75AA7EEA76AC0ED42
:10C250000A5AD0ED0B5A75EEA65AC0ED0B5AD0ED26
:10C260000C5AE7EE275AC0ED0C5AD0ED0D5AE6EE07
:10C27000A75AC0ED0D5AD0ED0E5AE7EEA75AC0ED01
:10C280000E5AD0ED0F5A75EEA75AC0ED0F5AD0EDE9
:10C29000105A75EE875AC0ED105AD0ED115A75EE4E
:10C2A000A65AC0ED115AD0ED125A75EEA75AC0ED3C
:10C2B000125AD0ED135A75EE855AC0ED135AD0EDCF
:10C2C000005AE7EE065A90ED017AC0ED005AA6EE4C
:10C2D000867A80ED017A90ED027AA7EE867AD0ED2B
:10C2E000037A80ED027A37EE866A80ED036A704742
:10C2F0002DE9F043034685B000F1100705460026FE
:10C300001C46AC4612E0F8EC016A1EED047AD4ED4E
:10C31000007AE6EEC77AC4ED007A98450EF1100E69
:10C32000F1D10434BC420CF1040C03D0A7F1100885
:10C33000E646F2E701361C46B646BEF1040F1FD0B2
:10C3400000EB0E1CA84604F1100909E0FCEC016AA0
:10C3500018ED047AD4ED047AE6EEC77AC4ED047AD7
:10C36000CC4508F11008F1D1D4ED046A93ED007AC0
:10C37000C6EE877A0EF1010EC4ED047A6446DCE75E
:10C38000042E03F1140305F1040507F11007B7D1DA
:10C39000002300930193029303936C460023142718
:10C3A00052F8045B44F8045B07FB030C00EB031535
:10C3B0006E4665451FD10133042BF1D104AD103118
:10C3C00000F1400255F8044D0E4600EB031741F80A
:10C3D000044D1446A742D1ED007A17D152ED016AFF
:10C3E00087EEA67A013BA2F1140281ED007AE9D131
:10C3F00005B0BDE8F083B6EC017A54ED017AF5ECB6
:10C40000016AE6EEC77A44ED017AD2E7F4EC016AFC
:10C41000B6EC017AE6EEC77AC1ED007ADAE79FED75
:10C420000C7A00F10C03F0EC017AF4EE677AF1EE8D
:10C4300010FA06D7F0EEE77AF4EE477AF1EE10FA4A
:10C4400003DC9842EFD1012070470020704700BF05
:10C45000FFFF7F7F1FB50C46024669461030FFF78D
:10C4600047FFDDED007AB6EE007A67EE877A204668
:10C47000C4ED007ADDED017A67EE877AC4ED017ACA
:10C48000DDED027A67EE877AC4ED027AFFF7C7FF27
:10C4900004B010BD08B547F091F800EE100AB5EEF3
:10C4A000C00AF1EE10FA06DB48F0C2F9B4EE400A19
:10C4B000F1EE10FA01D79FED010A08BD000000005F
:10C4C00008B5F7EE007A2DED028BF0EEC08A77EE1C
:10C4D000E87AB0EE408A17EE900A46F047FDFFF783
:10C4E000D9FF9FED0E7ADFED0E7AE8EE877A9FEDA9
:10C4F0000D7AA7EEA87ADFED0C7AE7EE287AB5EE92
:10C50000C08ABDEC028BF1EE10FA20EE270A44BF80
:10C51000DFED067A37EEC00A08BD00BF306E99BC69
:10C520002716983D843459BEA40DC93FDB0F4940FE
:10C5300008B50369012BC3BF03F1FF3307EE903A3F
:10C54000D0ED036A9FED067AC4BFF8EEE77A86EE77
:10C55000A77A17EE100A46F009FDBDE8084099E7F2
:10C560000000000038B50378012B04462CD1036984
:10C570001D4D23B9426812B9D5F80C2B4260D4ED99
:10C58000067A77EE807A01332361C4ED067A04F1EE
:10C590001C00FCF7EDF86268D5F80C3B9B1AA2680A
:10C5A000934211D9FFF7C4FFD4ED057AB4EEE70A40
:10C5B000F1EE10FA0CDD237B3BB9D5F80C2B626051
:10C5C00000222361A261E36238BD03232370FBE7ED
:10C5D000D4ED047AD4ED066AF8EE677A022386EE8B
:10C5E000A77A84ED067AF1E7F815002038B500F156
:10C5F0001C02044604F16405104650ED017AB1ECCA
:10C60000010A77EE807A40ED017AFCF7B1F8183034
:10C61000A842F2D12369294D616801332361D5F81D
:10C620000C3B5B1AA1688B422CD91046FFF780FFA8
:10C63000D4ED057AB4EEE70AF1EE10FA15DC04F158
:10C640003400FFF775FFD4ED057AB4EEE70AF1EE9A
:10C6500010FA0ADC04F14C00FFF76AFFD4ED057A0A
:10C66000B4EEE70AF1EE10FA10DD237B5BB9D5F8E2
:10C670000C2B626000222361A261E3622263636487
:10C68000A264E36538BD03232370FBE7D4ED047A8D
:10C69000D4ED066AF8EE677A022386EEA77AD4ED27
:10C6A0000C6A84ED067A86EEA77AD4ED126A84EDE0
:10C6B0000C7A86EEA77A84ED127AE5E7F815002069
:10C6C00060EEA00A08B5E0EE000A10EE900A46F00F
:10C6D0004DFCBDE80840DDE660EEA00A08B5E0EEDE
:10C6E000000AE1EE010A10EE900A46F03FFCBDE8B8
:10C6F0000840CFE62DE9F74F90469DF83020002AFC
:10C7000014BF4FF030094FF020090D9A1C1E05464A
:10C710000F46BABF64420123002312F8011B01B186
:10C720002CB9A24663B100240D9EA41B12E0013C6B
:10C73000F3E7BD4204D2494628460193C047019B16
:10C74000BAF1010AF5D2EFE7BD4203D228460193C0
:10C75000C047019B06EB040B16F8011B0029F3D11F
:10C7600033B15446002C07DCBAF1000FA8BFD34404
:10C77000584603B0BDE8F08FBD4202D24946284674
:10C78000C047013CEEE70FB437B50C4D06ABD5F80A
:10C79000101B53F8042BD5F80C0B019346F0B7F897
:10C7A0000446D5F8C00205F074FE0028F9D02046F2
:10C7B00003B0BDE8304004B0704700BFF026002051
:10C7C0000EB403B503AB084953F8042BCDE9003090
:10C7D00001A846F09CF8019B00221A7002B05DF897
:10C7E00004EB03B0704700BFBF8700080CB430B53E
:10C7F0002C4CD4F8143BA5B01BB9D4F8183B002B33
:10C800003AD094F81C3B994206D9012303FA00F070
:10C81000D4F8203B18422FD0234BD3F80C1B4FF4F5
:10C820007A7304A8B1FBF3F203FB12131F49FFF75D
:10C83000C7FF04AB0344289A1D490393054629AB5F
:10C8400003A8029346F063F8039B591C03910A2145
:10C850001970039B0246591CD4F8140B0391002154
:10C86000197090B103681B6A03B19847D4F8145B40
:10C8700004AC14F8011B21B925B0BDE8304002B06A
:10C880007047284605F0A0FDF3E7D4F8183B002BCD
:10C89000F2D002212A4400910A44FD2004A925F087
:10C8A000B9FDE9E7F0260020F81500205E1506081E
:10C8B0006787000810B54FF4004086B022F09AFF59
:10C8C000044690B34FF4004123F0F6F802281AD141
:10C8D000226848F201039A4227D14FF4004042F007
:10C8E0003DFD10B31F4BD3F8242B82421FD0D3F849
:10C8F000002C904230D0D3F8DC2C90422FD0002274
:10C90000C3F8182B11E00023022294F90400CDE9AA
:10C9100001234FF4612200924FF400411A4623F0A4
:10C9200015F9104BC3F8140B28B906B010BD03F667
:10C930002432C3F8182B0C4B04930C4B03930C4B71
:10C9400002930C4B01930C4B00930C4A0C4B0221AD
:10C950000020FFF74BFFE8E703F54062E9E703F645
:10C96000DC42E6E7F02600206A1506087315060883
:10C970007C150608881506088E1506088923060802
:10C98000BC140608184A38B5D2F8B84D033004EB89
:10C990009003B3F5007F19D802F6BC55C2F8B83D34
:10C9A000124A02EB810120F00300D1F8C424C3F540
:10C9B00000731044C1F8C4040D4A9B0004210020F8
:10C9C00005EB8404FFF712FF204638BD0021094A19
:10C9D0000846FFF70BFF084AD2F8943043F0007383
:10C9E000C2F894300024EFE7F0260020E83700205A
:10C9F0009F150608C2150608A82201202DE9F04758
:10CA000006460068FDF7D1FA0D28054608DD1F4AE5
:10CA100000210520FFF7EAFE00242046BDE8F0874C
:10CA20001B4F07EB80094FEA8008D9F8D4A2BAF16E
:10CA3000000F1CD107216420FFF7A4FF0446C9F8AA
:10CA4000D40228B90146134A0520FFF7CFFEE4E7D8
:10CA5000642251464AF023FE0F48D9F8D4322DB251
:10CA600000EBC505C3E90053DB615B63DB6447444E
:10CA70007179D7F8D442182000FB014300221C46EC
:10CA8000C3E903229E601A750434C6E7D015060870
:10CA9000F0260020F5150608307805082DE9F0434A
:10CAA000062592F9007087B06B43144612F8058092
:10CAB000A0EB080EA0EB070CBEF1000FB8BFCEF143
:10CAC000000EBCF1000FB8BFCCF1000CE64502EB44
:10CAD000050905F10605BCBF4FFA88F74C46AB4285
:10CAE0001646E3D11A443378BB420CD1658873886B
:10CAF0004D1BCB1A002DB8BF6D42002BB8BF5B4257
:10CB00009D42C8BF34460636B242ECD163790493E5
:10CB100023790393638802932378064ACDE90013AF
:10CB2000034603210120FFF761FE204607B0BDE860
:10CB3000F08300BF0F16060803685A1C02601970C4
:10CB40000368090A5A1C02601970704703685A1C6E
:10CB50000260197003685A1C02600A0A1A7003689E
:10CB60005A1C02600A0C1A700368090E5A1C0260F3
:10CB70001970704703685A1C02600A0A1A70036829
:10CB80005A1C02601970704738B504460068154693
:10CB90004AF04CFB23682B44236038BD03685A1CC1
:10CBA00002601878704703685A1C02601A4612F82F
:10CBB000021B0260587841EA0020704710B50268F5
:10CBC0001146531C036011F8024B0160D31C5178CD
:10CBD000036093781B0443EA0123111D0160D078A0
:10CBE000234343EA006010BDD1E900329A4206D0E7
:10CBF0005A1C0A6008B11B7803700120704700209E
:10CC00007047D1E900239B1A012B10B50446084652
:10CC100004DDFFF7C8FF2080012010BD0020FCE7E5
:10CC200030B50A440446914201D1002011E014F8C5
:10CC3000013BA3F14100192811F8010BA0F14105B6
:10CC400098BF2033192D98BF20301B1A02D100281D
:10CC5000E9D130BD1846FCE76FF00042E0E710B5BF
:10CC60000288C378A2F5FA62910840F2B554013BFC
:10CC700004FB013381780C24013902F0030204FB28
:10CC800002120D49847901EB42021821B2F8DE202C
:10CC90001344027901FB0322437900893C2101FB03
:10CCA0000233064A224401FB03224FF47A73002127
:10CCB000C2FB030110BD00BFD877050880436D3863
:10CCC0002DE9F04190461F4605464FF47A72002345
:10CCD0004046394646F0D0FD284B3C21034493FBA7
:10CCE000F1F201FB1233AB7192FBF1F301FB132262
:10CCF0006A7140F2B551182293FBF2F402FB14332F
:10CD000094FBF1F201FB1244B4F5896F2B714FEAE9
:10CD100082032EDA40F2DA2294422CDCB4F5B77F9B
:10CD2000B4BF00210121164A182000FB01220B2666
:10CD300032F81600A04201DD013EF9D103F5FA6395
:10CD40000B442B80731CAB700C2303FB01660D4B53
:10CD500003EB46060134B6F8DE30E41AEC704FF40B
:10CD60007A7200234046394646F086FD2A81BDE8A6
:10CD7000F0810321D7E70221D5E700BF80BC92C72D
:10CD8000B6780508D8770508F0B5274D06460F4652
:10CD90000FCD8DB06C460FC40FCD0FC495E80F00BA
:10CDA00084E80F0016F003033AD1642196FBF1F2F8
:10CDB00001FB126242B94FF4C87296FBF2F302FB18
:10CDC0001363003B18BF0123721EC3F11D03002A29
:10CDD000019340F26D13104606FB03F3B8BFB01C7D
:10CDE00003EBA0006FF0630392FBF3F318444FF4DE
:10CDF000C87392FBF3F210440630694600240725FD
:10CE0000013F51F8042BA74202EB000393FBF5F01E
:10CE1000C0EBC000A3EB000004D1101A0DB0F0BDB0
:10CE20000123D1E70134ECE718790508084B53E9F1
:10CE3000021251EA020309D0064BD3F80C3B5B18EF
:10CE400042F10002C0E90032012070470020704723
:10CE5000383D0020F815002037B505466846FFF735
:10CE6000E5FF044638B1DDE900232846FFF728FF37
:10CE7000204603B030BD40F2011328806B80A880AB
:10CE8000A8712881F4E7F0B50124B0FBF4F58D42D8
:10CE900003D200261CB91C70F0BD4C43F5E7B0FB73
:10CEA000F4F5B4FBF1F704FB15002EB9002D03DCFB
:10CEB0008C420CD33C46EDE7092D08DD002A14BF57
:10CEC000372457242C4403F8014B0136F2E7302471
:10CED000F8E7A0F13003DAB2092A01D81846704702
:10CEE000A0F16103052B01D857387047A0F1410329
:10CEF000052B94BF37384FF0FF30704770B50446AC
:10CF0000944208461546B4FBF2F602D33046FFF7CA
:10CF1000F5FF05FB1644024B1B5D00F8013B70BD9D
:10CF200048160608B5EEC00ADFED2D7AF1EE10FACC
:10CF3000CCBF30EE270A30EE670ADFED2A7A20EE0A
:10CF4000270A30B5FDEEC07A87B017EE904A054645
:10CF500084EAE470002303A9A0EBE470CDE9003378
:10CF6000029342F04FFF002CACBF20232D2303A8D7
:10CF70008DF8003045F08EFE012822D130238DF847
:10CF800001308DF802308DF8033003A968464AF06D
:10CF90008EFB684645F07EFE0338C4B222466946E1
:10CFA00028464AF043F900232B550F4928464AF0FA
:10CFB0007EFB0DEB040128464AF079FB284607B0BA
:10CFC00030BD022805D130238DF801308DF80230B4
:10CFD000DBE7032804BF30238DF80130D5E700BF1D
:10CFE0006F12033A00007A44134B060830B50278FA
:10CFF000202A034600F10100F9D0092AF7D02D2A92
:10D000004BD10346BFEE000A9FED3C7A1A46F2EE82
:10D01000046A134612F8010BA0F13001CCB2092CBE
:10D0200041D92E280BD1F2EE046A1146B0EE666AA1
:10D030000B4611F8012B303AD0B209283CD91A78A6
:10D0400002F0DF02452A53D15A782D2A3FD102330C
:10D050000120013B00220A2513F8011F3039CCB210
:10D06000092C3AD9B2F59A7F1346DFED256A28BF1D
:10D070004FF49A731A46F7EE007A072A30D8DA0886
:10D080006FF0070101FB0233F2EE046A63BB88B361
:10D09000C7EE276A20EE260A30BD2B2A08BF0346BA
:10D0A000B7EE000AB0E707EE901AF8EEE77AE7EE7F
:10D0B000267AB0EE677AACE707EE902AF8EEE77AC8
:10D0C000C7EEA65A66EE866A37EE257AB0E72B2AB7
:10D0D00014BF013302330020BBE705FB0212BBE79C
:10D0E00067EEA67A083AC8E767EEA67A013BCDE775
:10D0F000F7EE007A67EE276ACCE700BF0000000079
:10D1000020BCBE4C70B5034610F8012B202AFAD083
:10D11000092AF8D02D2A0ABF034601254FF0FF3512
:10D12000591E00240A2611F8010FFFF7D2FE092824
:10D1300002D905FB04F070BD06FB0404F3E72DE9FA
:10D14000F04F2DED028B8FB02EF088FE2EF060FE9A
:10D150004FF00008DFF838930646444647464546F8
:10D16000BE4200F3AB80642C40F053816825DFF8A9
:10D17000F482B94BD8F84C71C3F8307F4C22554338
:10D1800008EB0503002118464AF089FA4C220021D9
:10D190004AF085FAB14A48F805200122C0E9046640
:10D1A000C0E907778260AE4A826247620534AA4BC3
:10D1B000AC4DD3F8307F7300B3F1805F18DA4C22A6
:10D1C00054432B19002118464AF069FA4C220021D9
:10D1D0004AF065FAA44A2A5102224271C6F1006659
:10D1E00001229640C0E90466C0E907778260476281
:10D1F0009E499C484FF498724AF018F8994A0421C5
:10D2000013460139C3E907775F6203F14C03F8D194
:10D21000AC68002C4DD12B79002B4AD02B68002B09
:10D2200047D0C5E911118F482964E9630F468C4640
:10D23000C66C00F14C03002E40F02C8102231068D4
:10D24000002840F057818A4E981E8A4BC6F83C3A17
:10D250003E23C6F8403A3F23C6F8443A4023C6F876
:10D26000483AC6F8581AC6F8644AC6F8540A830FF2
:10D270008100002800F06B8140F2FF128A1843F110
:10D280000003520A42EAC35202F14003C6F84C3A84
:10D290001344C6F8503A03EBC003DA0DC6F8383A27
:10D2A0005B02C6F8303A744BC6F85C5AC6F8605A4E
:10D2B0005A600FB0BDEC028BBDE8F08F202206A9AA
:10D2C00038462EF08BFD6D49122206A84AF036FA38
:10D2D0000090002840F08B80AF421DD068490C20A0
:10D2E000621C00FB0414CA46664901922046FFF7FF
:10D2F00067FA01214AF84C4BC9E902155849C9F8A7
:10D300002810019AD9F81C10A7EB050BC9E904BB3A
:10D31000C9E908111446D1464F4BD3F8302FC9F84C
:10D320001C203D4612220EAB501C1A44564B12F8DC
:10D33000201C18F8032091425CD108F10108B8F1D3
:10D34000150F59D1202206A928442EF047FD0025AB
:10D3500005AA4E4906A84AF048F905AACDE90255A2
:10D3600008EE102A0195AA46AB4638B30BF1FF32FE
:10D37000042A04D8DFE802F00F13171B1F00FFF781
:10D38000C1FE824618EE102A404900200BF1010B25
:10D390004AF02BF9E9E7FFF7B5FE0190F2E7FFF756
:10D3A000B1FE0290EEE7FFF7ADFE0390EAE7FFF76C
:10D3B000A9FE0546E6E7FFF7A5FE0090BAF1000FCB
:10D3C00012D0DDE90123AAF2BC7A43EA4210039BA2
:10D3D00040EA4A2A680140EAC320009B40EA630011
:10D3E00040EA0A40C9F81C00642C2ED03D4607F5DF
:10D3F0000067B5E64FF00008202808D12035AE427E
:10D40000F2DB024606A928462EF0E8FC0020024680
:10D4100089E7AF4219D01A4A1A49A7EB05080C2729
:10D4200007FB0427013422463846FFF7C9F90122D9
:10D43000C9E902250A4AC9F82820D9F81C20C9F8E8
:10D440000070C9E90488C9E90822251D002C7FF471
:10D450008EAE0424ABE600BF00000020A91606082B
:10D46000759D0008AC440020B616060848790508EA
:10D47000F8150020C3160608282000206D1606089F
:10D48000383D0020801606088E160608A4160608E9
:10D49000DC4500209E68C3F840C007F1FF3E76459A
:10D4A000C3E911CCC3F83CC005D1002F3FF401AF54
:10D4B00053F80C0C374607F1010E764508D1067972
:10D4C000002E3FF4F6AE4364186477461846AFE684
:10D4D000BE427FF4EEAE002E3FF4EBAED0F840E05B
:10D4E000DEF83C700137CEF83C70C3F840E083644E
:10D4F000B646EAE7107903F1FF3CA0B11363D36BA2
:10D500005B011ABF03F6FF731B0B01236344C2E9DF
:10D510000466C2E90D33D2E90D03181A0144013340
:10D5200001344C328BE61769136367B107F6FF7756
:10D530003F0B50696744576338B100F6FF70000B2A
:10D5400060449063E7E70127F3E70120F8E7012251
:10D550009AE610B50023802804D893420AD2C85412
:10D56000581C10BD934205D060F07F04CC54C00914
:10D570000133F0E74FF0FF30F3E770B51249134C79
:10D58000134E01220020FEF757FB228862B1A31D33
:10D59000B34217D2A518B54214D2052A12D9214692
:10D5A000FEF74AFB2C46F0E721460222FEF744FB39
:10D5B00063880849084AC31A641A5842A2F8004A04
:10D5C000584170BD0020FCE7004000080140000801
:10D5D00000800008FC3F0008E83700202DE9F04FEC
:10D5E000794BDFF8F4818FB0A3EB0802CDE901237A
:10D5F0004FF00309102200210AA84AF050F8019BBD
:10D600000993029B0893714BCDF81C801A69002A7C
:10D61000BFBF6F4A5A6002F188325A600124F32278
:10D62000DA604FF0000A7E23224604A907A88DF88D
:10D630003440CDF830A08DF81030FBF7C7FB5045D3
:10D6400013DA0023B9F1010900F0B780002BD1D023
:10D6500098F800307E2B40F0B380FFF78EFF002853
:10D6600000F0AE800FB0BDE8F08F224604A950460E
:10D67000FEF7E2FA574CDFF864B1ADF812005C45F2
:10D680003CD30024022205A907A8ADF81440FBF7FB
:10D690009DFBA042D5DBBDF81200022205A9FEF7D2
:10D6A000CBFA0222ADF812000DF1120107A8FBF728
:10D6B0008DFBA042C5DB0B9888B1079B089A0344F9
:10D6C0009342BED80AABC0F104022146184449F087
:10D6D000E6FF0AA907A8FBF7D5FACDE90B400C9B9A
:10D6E000002BAEDB9DF8342022B138490A6942F0A4
:10D6F00000420A61B3FA83F35B09A3E762888DF8FD
:10D7000019A0C2F30B06B31DADF814302388C3F380
:10D710000B011B0B8DF818301304ADF8161020D434
:10D72000062205A907A8FBF751FB002889DBBDF8F5
:10D730001200062205A9FEF77FFA6168ADF8120013
:10D74000324607A8FBF742FB0028FFF67AAFBDF888
:10D75000120061683246FEF76FFAADF81200143419
:10D760008DE700273D460135EDB2062205A907A841
:10D770008DF81950FBF72AFB0028FFF662AFBDF8C1
:10D780001200062205A9FEF757FA6168ADF81200EB
:10D790003944324607A80391FBF718FB0028FFF62F
:10D7A00050AFBDF8120003993246FEF745FA032D3B
:10D7B000ADF812003744D6D1D1E7002B7FF448AF43
:10D7C000052005F071F800BF00800008003C024011
:10D7D00023016745AC710608004000085C76060826
:10D7E000034AD2F8043A23EA0000C2F8040A704758
:10D7F000E8370020034606490648884201D3002046
:10D8000070470288C2F30B029342F9D01430F4E758
:10D810005C760608AC71060813B542880B460446D0
:10D82000C2F30B0200211846019249F038FF21692A
:10D8300003460A48814209D30948019A814205D228
